{
  "address": "0x2e9D515864D86b4462211531E9462cEbA138B4DB",
  "abi": [
    {
      "inputs": [
        {
          "internalType": "address",
          "name": "tablelandAddress",
          "type": "address"
        }
      ],
      "stateMutability": "nonpayable",
      "type": "constructor"
    },
    {
      "anonymous": false,
      "inputs": [
        {
          "indexed": true,
          "internalType": "address",
          "name": "contractAddress",
          "type": "address"
        }
      ],
      "name": "AdSpaceCreated",
      "type": "event"
    },
    {
      "anonymous": false,
      "inputs": [
        {
          "indexed": true,
          "internalType": "uint256",
          "name": "AdSpaceId",
          "type": "uint256"
        }
      ],
      "name": "AdSpaceUpdated",
      "type": "event"
    },
    {
      "anonymous": false,
      "inputs": [
        {
          "indexed": true,
          "internalType": "uint256",
          "name": "CampaignId",
          "type": "uint256"
        }
      ],
      "name": "CampaignCreated",
      "type": "event"
    },
    {
      "anonymous": false,
      "inputs": [
        {
          "indexed": true,
          "internalType": "uint256",
          "name": "DealId",
          "type": "uint256"
        },
        {
          "indexed": true,
          "internalType": "uint256",
          "name": "CampaignId",
          "type": "uint256"
        },
        {
          "indexed": true,
          "internalType": "uint256",
          "name": "AdSpaceId",
          "type": "uint256"
        }
      ],
      "name": "DealCreated",
      "type": "event"
    },
    {
      "anonymous": false,
      "inputs": [
        {
          "indexed": true,
          "internalType": "address",
          "name": "previousOwner",
          "type": "address"
        },
        {
          "indexed": true,
          "internalType": "address",
          "name": "newOwner",
          "type": "address"
        }
      ],
      "name": "OwnershipTransferred",
      "type": "event"
    },
    {
      "inputs": [
        {
          "internalType": "string",
          "name": "_name",
          "type": "string"
        },
        {
          "internalType": "string",
          "name": "_website",
          "type": "string"
        },
        {
          "internalType": "string",
          "name": "_asking_price",
          "type": "string"
        },
        {
          "internalType": "uint8",
          "name": "_numNFTs",
          "type": "uint8"
        },
        {
          "internalType": "string",
          "name": "_size",
          "type": "string"
        }
      ],
      "name": "createAdSpace",
      "outputs": [],
      "stateMutability": "payable",
      "type": "function"
    },
    {
      "inputs": [
        {
          "internalType": "string",
          "name": "name",
          "type": "string"
        },
        {
          "internalType": "string",
          "name": "cid",
          "type": "string"
        },
        {
          "internalType": "string",
          "name": "size",
          "type": "string"
        },
        {
          "internalType": "string",
          "name": "link",
          "type": "string"
        }
      ],
      "name": "createCampaign",
      "outputs": [],
      "stateMutability": "payable",
      "type": "function"
    },
    {
      "inputs": [
        {
          "internalType": "uint256",
          "name": "_adspaceId",
          "type": "uint256"
        },
        {
          "internalType": "uint256",
          "name": "_price",
          "type": "uint256"
        },
        {
          "internalType": "uint40",
          "name": "_end",
          "type": "uint40"
        },
        {
          "internalType": "uint256",
          "name": "campaignId",
          "type": "uint256"
        }
      ],
      "name": "createDeal",
      "outputs": [],
      "stateMutability": "payable",
      "type": "function"
    },
    {
      "inputs": [
        {
          "internalType": "uint256",
          "name": "i",
          "type": "uint256"
        }
      ],
      "name": "getAdSpaceAddress",
      "outputs": [
        {
          "internalType": "address",
          "name": "",
          "type": "address"
        }
      ],
      "stateMutability": "view",
      "type": "function"
    },
    {
      "inputs": [],
      "name": "getAdSpaceTable",
      "outputs": [
        {
          "internalType": "string",
          "name": "",
          "type": "string"
        }
      ],
      "stateMutability": "view",
      "type": "function"
    },
    {
      "inputs": [],
      "name": "getAdSpaceTableId",
      "outputs": [
        {
          "internalType": "uint256",
          "name": "",
          "type": "uint256"
        }
      ],
      "stateMutability": "view",
      "type": "function"
    },
    {
      "inputs": [],
      "name": "getCampaignTable",
      "outputs": [
        {
          "internalType": "string",
          "name": "",
          "type": "string"
        }
      ],
      "stateMutability": "view",
      "type": "function"
    },
    {
      "inputs": [],
      "name": "getCampaignTableId",
      "outputs": [
        {
          "internalType": "uint256",
          "name": "",
          "type": "uint256"
        }
      ],
      "stateMutability": "view",
      "type": "function"
    },
    {
      "inputs": [],
      "name": "getCounterAdSpaces",
      "outputs": [
        {
          "internalType": "uint256",
          "name": "",
          "type": "uint256"
        }
      ],
      "stateMutability": "view",
      "type": "function"
    },
    {
      "inputs": [],
      "name": "getDealTable",
      "outputs": [
        {
          "internalType": "string",
          "name": "",
          "type": "string"
        }
      ],
      "stateMutability": "view",
      "type": "function"
    },
    {
      "inputs": [],
      "name": "getDealTableId",
      "outputs": [
        {
          "internalType": "uint256",
          "name": "",
          "type": "uint256"
        }
      ],
      "stateMutability": "view",
      "type": "function"
    },
    {
      "inputs": [
        {
          "internalType": "address",
          "name": "",
          "type": "address"
        },
        {
          "internalType": "address",
          "name": "",
          "type": "address"
        },
        {
          "internalType": "uint256",
          "name": "",
          "type": "uint256"
        },
        {
          "internalType": "bytes",
          "name": "",
          "type": "bytes"
        }
      ],
      "name": "onERC721Received",
      "outputs": [
        {
          "internalType": "bytes4",
          "name": "",
          "type": "bytes4"
        }
      ],
      "stateMutability": "nonpayable",
      "type": "function"
    },
    {
      "inputs": [],
      "name": "owner",
      "outputs": [
        {
          "internalType": "address",
          "name": "",
          "type": "address"
        }
      ],
      "stateMutability": "view",
      "type": "function"
    },
    {
      "inputs": [],
      "name": "renounceOwnership",
      "outputs": [],
      "stateMutability": "nonpayable",
      "type": "function"
    },
    {
      "inputs": [
        {
          "internalType": "address",
          "name": "newOwner",
          "type": "address"
        }
      ],
      "name": "transferOwnership",
      "outputs": [],
      "stateMutability": "nonpayable",
      "type": "function"
    }
  ],
  "transactionHash": "0x4e3a4ff1cd63183c78b9b6466a41d026d3f2695b3a07d78bd6f2f41082ed089e",
  "args": [
    "0xc72e8a7be04f2469f8c2db3f1bdf69a7d516abba"
  ],
  "solcInputHash": "a4eb4f48410464cea21d564586c67ffa",
  "bytecode": "0x6080604052600060085560006009556000600a553480156200002057600080fd5b5060405162004cfc38038062004cfc83398101604081905262000043916200046f565b6200004e336200027e565b600180546001600160a01b0319166001600160a01b03831617905560006200008246620002ce602090811b6200073617901c565b604051602001620000949190620004c7565b60408051601f198184030181529190529050620000b181620003ee565b600281905550620000cd46620002ce60201b620007361760201c565b620000e5600254620002ce60201b620007361760201c565b604051602001620000f8929190620005d7565b60405160208183030381529060405260039081620001179190620006da565b5060006200013046620002ce60201b620007361760201c565b604051602001620001429190620007a6565b60408051601f1981840301815291905290506200015f81620003ee565b6004819055506200017b46620002ce60201b620007361760201c565b62000193600454620002ce60201b620007361760201c565b604051602001620001a69291906200086a565b60405160208183030381529060405260059081620001c59190620006da565b506000620001de46620002ce60201b620007361760201c565b604051602001620001f09190620008c9565b60408051601f1981840301815291905290506200020d81620003ee565b6006819055506200022946620002ce60201b620007361760201c565b62000241600654620002ce60201b620007361760201c565b60405160200162000254929190620009b9565b60405160208183030381529060405260079081620002739190620006da565b505050505062000b2a565b600080546001600160a01b038381166001600160a01b0319831681178455604051919092169283917f8be0079c531659141344cd1fd0a4f28419497f9722a3daafe3b4186f6b6457e09190a35050565b606081600003620002f65750506040805180820190915260018152600360fc1b602082015290565b8160005b81156200032657806200030d8162000a2a565b91506200031e9050600a8362000a5c565b9150620002fa565b6000816001600160401b0381111562000343576200034362000635565b6040519080825280601f01601f1916602001820160405280156200036e576020820181803683370190505b5090505b8415620003e6576200038660018362000a73565b915062000395600a8662000a89565b620003a290603062000aa0565b60f81b818381518110620003ba57620003ba62000ab6565b60200101906001600160f81b031916908160001a905350620003de600a8662000a5c565b945062000372565b949350505050565b6001546040516303a9151b60e41b81526000916001600160a01b031690633a9151b09062000423903090869060040162000acc565b6020604051808303816000875af115801562000443573d6000803e3d6000fd5b505050506040513d601f19601f8201168201806040525081019062000469919062000b10565b92915050565b6000602082840312156200048257600080fd5b81516001600160a01b03811681146200049a57600080fd5b9392505050565b60005b83811015620004be578181015183820152602001620004a4565b50506000910152565b7f435245415445205441424c4520416453706163657300000000000000000000008152605f60f81b6015820152600082516200050b816016850160208701620004a1565b7f2028616473706163655f696420494e5445474552205052494d415259204b455960169390910192830152507f2c6e616d6520544558542c207765627369746520544558542c2076657269666960368201527f656420494e54454745522c2073746174757320544558542c206f776e6572205460568201527f4558542c20636f6e747261637420544558542c2061736b696e675f707269636560768201527f20494e54454745522c2073697a652054455854293b0000000000000000000000609682015260ab01919050565b67416453706163657360c01b81526000605f60f81b806008840152845162000607816009860160208901620004a1565b8084019050816009820152845191506200062982600a830160208801620004a1565b01600a01949350505050565b634e487b7160e01b600052604160045260246000fd5b600181811c908216806200066057607f821691505b6020821081036200068157634e487b7160e01b600052602260045260246000fd5b50919050565b601f821115620006d557600081815260208120601f850160051c81016020861015620006b05750805b601f850160051c820191505b81811015620006d157828155600101620006bc565b5050505b505050565b81516001600160401b03811115620006f657620006f662000635565b6200070e816200070784546200064b565b8462000687565b602080601f8311600181146200074657600084156200072d5750858301515b600019600386901b1c1916600185901b178555620006d1565b600085815260208120601f198616915b82811015620007775788860151825594840194600190910190840162000756565b5085821015620007965787850151600019600388901b60f8161c191681555b5050505050600190811b01905550565b7f435245415445205441424c452043616d706169676e73000000000000000000008152605f60f81b601682015260008251620007ea816017850160208701620004a1565b7f202863616d706169676e5f696420494e5445474552205052494d415259204b4560179390910192830152507f592c6e616d6520544558542c2063696420544558542c2073697a65205445585460378201527f2c206c696e6b20544558542c206f776e65722054455854293b000000000000006057820152607001919050565b6843616d706169676e7360b81b81526000605f60f81b80600984015284516200089b81600a860160208901620004a1565b808401905081600a82015284519150620008bd82600b830160208801620004a1565b01600b01949350505050565b71435245415445205441424c45204465616c7360701b8152605f60f81b60128201526000825162000902816013850160208701620004a1565b7f20286465616c5f696420494e5445474552205052494d415259204b45592c206360139390910192830152507f616d706169676e5f69645f666b20494e54454745522c20616473706163655f6960338201527f645f666b20494e54454745522c206475726174696f6e5f6465616c20494e544560538201527f4745522c20707269636520494e54454745522c20737461727465645f617420496073820152674e5445474552293b60c01b6093820152609b01919050565b644465616c7360d81b81526000605f60f81b8060058401528451620009e6816006860160208901620004a1565b80840190508160068201528451915062000a08826007830160208801620004a1565b01600701949350505050565b634e487b7160e01b600052601160045260246000fd5b60006001820162000a3f5762000a3f62000a14565b5060010190565b634e487b7160e01b600052601260045260246000fd5b60008262000a6e5762000a6e62000a46565b500490565b8181038181111562000469576200046962000a14565b60008262000a9b5762000a9b62000a46565b500690565b8082018082111562000469576200046962000a14565b634e487b7160e01b600052603260045260246000fd5b60018060a01b0383168152604060208201526000825180604084015262000afb816060850160208701620004a1565b601f01601f1916919091016060019392505050565b60006020828403121562000b2357600080fd5b5051919050565b6141c28062000b3a6000396000f3fe608060405260043610620000fb5760003560e01c8063a92f40061162000095578063c4d949031162000060578063c4d94903146200026e578063cf78aa7c1462000286578063f2fde38b146200029d578063f942aad114620002c257600080fd5b8063a92f40061462000201578063b47234401462000218578063b4b0310f146200022f578063b834044c146200025657600080fd5b80636193d54111620000d65780636193d5411462000187578063715018a6146200019e5780638da5cb5b14620001b6578063a46b2ea514620001ea57600080fd5b8063150b7a021462000100578063412861b9146200014d5780635d6b036d146200016e575b600080fd5b3480156200010d57600080fd5b506200012f6200011f36600462000bf2565b630a85bd0160e11b949350505050565b6040516001600160e01b031990911681526020015b60405180910390f35b3480156200015a57600080fd5b506006545b60405190815260200162000144565b620001856200017f36600462000ca1565b620002e7565b005b3480156200019457600080fd5b506002546200015f565b348015620001ab57600080fd5b50620001856200037c565b348015620001c357600080fd5b506000546001600160a01b03165b6040516001600160a01b03909116815260200162000144565b348015620001f757600080fd5b506004546200015f565b620001856200021236600462000d4f565b62000394565b620001856200022936600462000e25565b6200048f565b3480156200023c57600080fd5b5062000247620005c4565b60405162000144919062000ec4565b3480156200026357600080fd5b50620002476200065e565b3480156200027b57600080fd5b50620002476200066f565b3480156200029357600080fd5b506008546200015f565b348015620002aa57600080fd5b5062000185620002bc36600462000ed9565b62000680565b348015620002cf57600080fd5b50620001d1620002e136600462000ef7565b62000703565b6000600585858585620002fc33601462000857565b604051602001620003139695949392919062001010565b6040516020818303038152906040529050620003326004548262000a1a565b60098054906000620003448362001133565b90915550506009546040517fbc0a5edd152fa5b886dcae82c5c109d113708653b4b9c0224549ccdf715af94e90600090a25050505050565b6200038662000a88565b62000392600062000ae4565b565b6000856008543385604051620003aa9062000b34565b620003b994939291906200114f565b604051809103906000f080158015620003d6573d6000803e3d6000fd5b509050600060038787620003ec33601462000857565b62000402866001600160a01b0316601462000857565b89886040516020016200041c9796959493929190620011ae565b60405160208183030381529060405290506200043b6002548262000a1a565b600880549060006200044d8362001133565b90915550506040516001600160a01b038316907f2e681b0bce38884fe3d327a27588b0edcdfcedd63d1e1ba737f37c04ba29cdf290600090a250505050505050565b600060076200049e8362000736565b620004a98762000736565b620004bb8664ffffffffff1662000736565b620004c68862000736565b620004d14262000736565b604051602001620004e89695949392919062001312565b6040516020818303038152906040529050620005076004548262000a1a565b600a8054906000620005198362001133565b9091555050600854600954600a546040517f513a1504cb2af4e1c25fe1dddf73d9471d716dda4e84b8b626c63f0921c0035b90600090a4600060036200055f8762000736565b604051602001620005729291906200142a565b6040516020818303038152906040529050620005916002548262000a1a565b60405186907fdf6133baa6089c4a19ab9a4892b1163e533f741b01f4e4604c738c02fac47d7790600090a2505050505050565b606060058054620005d59062000f11565b80601f0160208091040260200160405190810160405280929190818152602001828054620006039062000f11565b8015620006545780601f10620006285761010080835404028352916020019162000654565b820191906000526020600020905b8154815290600101906020018083116200063657829003601f168201915b5050505050905090565b606060078054620005d59062000f11565b606060038054620005d59062000f11565b6200068a62000a88565b6001600160a01b038116620006f55760405162461bcd60e51b815260206004820152602660248201527f4f776e61626c653a206e6577206f776e657220697320746865207a65726f206160448201526564647265737360d01b60648201526084015b60405180910390fd5b620007008162000ae4565b50565b6000600b82815481106200071b576200071b620014b3565b6000918252602090912001546001600160a01b031692915050565b6060816000036200075e5750506040805180820190915260018152600360fc1b602082015290565b8160005b81156200078e5780620007758162001133565b9150620007869050600a83620014df565b915062000762565b60008167ffffffffffffffff811115620007ac57620007ac62000b5f565b6040519080825280601f01601f191660200182016040528015620007d7576020820181803683370190505b5090505b84156200084f57620007ef600183620014f6565b9150620007fe600a866200150c565b6200080b90603062001523565b60f81b818381518110620008235762000823620014b3565b60200101906001600160f81b031916908160001a90535062000847600a86620014df565b9450620007db565b949350505050565b606060006200086883600262001539565b6200087590600262001523565b67ffffffffffffffff81111562000890576200089062000b5f565b6040519080825280601f01601f191660200182016040528015620008bb576020820181803683370190505b509050600360fc1b81600081518110620008d957620008d9620014b3565b60200101906001600160f81b031916908160001a905350600f60fb1b816001815181106200090b576200090b620014b3565b60200101906001600160f81b031916908160001a90535060006200093184600262001539565b6200093e90600162001523565b90505b6001811115620009c0576f181899199a1a9b1b9c1cb0b131b232b360811b85600f1660108110620009765762000976620014b3565b1a60f81b8282815181106200098f576200098f620014b3565b60200101906001600160f81b031916908160001a90535060049490941c93620009b88162001553565b905062000941565b50831562000a115760405162461bcd60e51b815260206004820181905260248201527f537472696e67733a20686578206c656e67746820696e73756666696369656e746044820152606401620006ec565b90505b92915050565b60015460405163757ae82760e11b81526001600160a01b039091169063eaf5d04e9062000a50903090869086906004016200156d565b600060405180830381600087803b15801562000a6b57600080fd5b505af115801562000a80573d6000803e3d6000fd5b505050505050565b6000546001600160a01b03163314620003925760405162461bcd60e51b815260206004820181905260248201527f4f776e61626c653a2063616c6c6572206973206e6f7420746865206f776e65726044820152606401620006ec565b600080546001600160a01b038381166001600160a01b0319831681178455604051919092169283917f8be0079c531659141344cd1fd0a4f28419497f9722a3daafe3b4186f6b6457e09190a35050565b612bed80620015a083390190565b80356001600160a01b038116811462000b5a57600080fd5b919050565b634e487b7160e01b600052604160045260246000fd5b600067ffffffffffffffff8084111562000b935762000b9362000b5f565b604051601f8501601f19908116603f0116810190828211818310171562000bbe5762000bbe62000b5f565b8160405280935085815286868601111562000bd857600080fd5b858560208301376000602087830101525050509392505050565b6000806000806080858703121562000c0957600080fd5b62000c148562000b42565b935062000c246020860162000b42565b925060408501359150606085013567ffffffffffffffff81111562000c4857600080fd5b8501601f8101871362000c5a57600080fd5b62000c6b8782356020840162000b75565b91505092959194509250565b600082601f83011262000c8957600080fd5b62000c9a8383356020850162000b75565b9392505050565b6000806000806080858703121562000cb857600080fd5b843567ffffffffffffffff8082111562000cd157600080fd5b62000cdf8883890162000c77565b9550602087013591508082111562000cf657600080fd5b62000d048883890162000c77565b9450604087013591508082111562000d1b57600080fd5b62000d298883890162000c77565b9350606087013591508082111562000d4057600080fd5b5062000c6b8782880162000c77565b600080600080600060a0868803121562000d6857600080fd5b853567ffffffffffffffff8082111562000d8157600080fd5b62000d8f89838a0162000c77565b9650602088013591508082111562000da657600080fd5b62000db489838a0162000c77565b9550604088013591508082111562000dcb57600080fd5b62000dd989838a0162000c77565b94506060880135915060ff8216821462000df257600080fd5b9092506080870135908082111562000e0957600080fd5b5062000e188882890162000c77565b9150509295509295909350565b6000806000806080858703121562000e3c57600080fd5b8435935060208501359250604085013564ffffffffff8116811462000e6057600080fd5b9396929550929360600135925050565b60005b8381101562000e8d57818101518382015260200162000e73565b50506000910152565b6000815180845262000eb081602086016020860162000e70565b601f01601f19169290920160200192915050565b60208152600062000c9a602083018462000e96565b60006020828403121562000eec57600080fd5b62000c9a8262000b42565b60006020828403121562000f0a57600080fd5b5035919050565b600181811c9082168062000f2657607f821691505b60208210810362000f4757634e487b7160e01b600052602260045260246000fd5b50919050565b8054600090600181811c908083168062000f6857607f831692505b6020808410820362000f8a57634e487b7160e01b600052602260045260246000fd5b81801562000fa1576001811462000fb75762000fe6565b60ff198616895284151585028901965062000fe6565b60008881526020902060005b8681101562000fde5781548b82015290850190830162000fc3565b505084890196505b50505050505092915050565b600081516200100681856020860162000e70565b9290920192915050565b6b024a729a2a92a1024a72a27960a51b8152600062001033600c83018962000f4d565b7f20286e616d652c206369642c2073697a652c206c696e6b2c206f776e6572292081526856414c55455320282760b81b602082015287516200107d816029840160208c0162000e70565b80820191505062272c2760e81b8060298301528751620010a581602c850160208c0162000e70565b602c92019182018190528651620010c481602f850160208b0162000e70565b602f9201918201528451620010e181603284016020890162000e70565b01620010f56032820162272c2760e81b9052565b62001104603582018562000ff2565b6227293b60e81b81526003019998505050505050505050565b634e487b7160e01b600052601160045260246000fd5b6000600182016200114857620011486200111d565b5060010190565b60a0815260006200116460a083018762000e96565b82810360208401526008815267244144535041434560c01b60208201526040810191505084604083015260018060a01b038416606083015260ff8316608083015295945050505050565b6b024a729a2a92a1024a72a27960a51b81526000620011d1600c83018a62000f4d565b7f20286e616d652c776562736974652c76657269666965642c7374617475732c6f81527f776e65722c636f6e74726163742c61736b696e675f70726963652c73697a65296020820152692056414c55455320282760b01b60408201526200123c604a82018a62000ff2565b62272c2760e81b815290506003620012578183018a62000ff2565b62272c2760e81b81529150600360fc1b8282015262272c2760e81b6004830152732832b73234b733902b32b934b334b1b0ba34b7b760611b600783015262272c2760e81b601b830152620012af601e83018962000ff2565b62272c2760e81b81529150620012c88183018862000ff2565b62272c2760e81b81529150620012e18183018762000ff2565b62272c2760e81b81529150620012fa8183018662000ff2565b6227293b60e81b8152019a9950505050505050505050565b6b024a729a2a92a1024a72a27960a51b8152600062001335600c83018962000f4d565b7f202863616d706169676e5f69645f666b2c20616473706163655f69645f666b2c81527f206475726174696f6e5f6465616c2c2070726963652c20737461727465645f6160208201526b74292056414c55455320282760a01b60408201528751620013a881604c840160208c0162000e70565b80820191505062272c2760e81b80604c8301528751620013d081604f850160208c0162000e70565b604f9201918201528551620013ed816052840160208a0162000e70565b01620014016052820162272c2760e81b9052565b62001410605582018662000ff2565b62272c2760e81b8152905062001104600382018562000ff2565b6602aa82220aa22960cd1b8152600062001448600783018562000f4d565b7f2053455420737461747573203d2752756e6e696e67204164732720574845524581526e20616473706163655f6964203d202760881b602082015283516200149881602f84016020880162000e70565b61273b60f01b602f9290910191820152603101949350505050565b634e487b7160e01b600052603260045260246000fd5b634e487b7160e01b600052601260045260246000fd5b600082620014f157620014f1620014c9565b500490565b8181038181111562000a145762000a146200111d565b6000826200151e576200151e620014c9565b500690565b8082018082111562000a145762000a146200111d565b808202811582820484141762000a145762000a146200111d565b6000816200156557620015656200111d565b506000190190565b60018060a01b038416815282602082015260606040820152600062001596606083018462000e96565b9594505050505056fe60e0604052602160808181529062002bcc60a039600c9062000022908262000979565b506014600d55600e805460ff19169055601080546001600160a81b03191674015b38da6a701c568545dcfcb03fcb875f56beddc41790553480156200006657600080fd5b5060405162002bed38038062002bed833981016040819052620000899162000afc565b8484600062000099838262000979565b506001620000a8828262000979565b505050620000c5620000bf6200016260201b60201c565b62000166565b600f83905560118054336001600160a01b031991821681179092556012805490911682179055620000f9906103e8620001b8565b60008160ff16116200010a57600080fd5b8060ff16600d54116200012057600d5462000125565b8060ff165b600d5560015b600d54811162000156576200014183826200025a565b806200014d8162000bc4565b9150506200012b565b50505050505062000cc7565b3390565b600a80546001600160a01b038381166001600160a01b0319831681179093556040519116919082907f8be0079c531659141344cd1fd0a4f28419497f9722a3daafe3b4186f6b6457e090600090a35050565b612710811115620002105760405162461bcd60e51b815260206004820152601a60248201527f45524332393831526f79616c746965733a20546f6f206869676800000000000060448201526064015b60405180910390fd5b604080518082019091526001600160a01b0390921680835262ffffff9091166020909201829052600b8054600160a01b9093026001600160b81b0319909316909117919091179055565b6200027c8282604051806020016040528060008152506200028060201b60201c565b5050565b6200028c8383620002f8565b6200029b60008484846200044e565b620002f35760405162461bcd60e51b8152602060048201526032602482015260008051602062002bac83398151915260448201527131b2b4bb32b91034b6b83632b6b2b73a32b960711b606482015260840162000207565b505050565b6001600160a01b038216620003505760405162461bcd60e51b815260206004820181905260248201527f4552433732313a206d696e7420746f20746865207a65726f2061646472657373604482015260640162000207565b6000818152600260205260409020546001600160a01b031615620003b75760405162461bcd60e51b815260206004820152601c60248201527f4552433732313a20746f6b656e20616c7265616479206d696e74656400000000604482015260640162000207565b620003c560008383620005aa565b6001600160a01b0382166000908152600360205260408120805460019290620003f090849062000be0565b909155505060008181526002602052604080822080546001600160a01b0319166001600160a01b03861690811790915590518392907fddf252ad1be2c89b69c2b068fc378daa952ba7f163c4a11628f55a4df523b3ef908290a45050565b60006200046f846001600160a01b03166200068660201b62000ede1760201c565b156200059e57604051630a85bd0160e11b81526001600160a01b0385169063150b7a0290620004a990339089908890889060040162000bfc565b6020604051808303816000875af1925050508015620004e7575060408051601f3d908101601f19168201909252620004e49181019062000c52565b60015b62000583573d80801562000518576040519150601f19603f3d011682016040523d82523d6000602084013e6200051d565b606091505b5080516000036200057b5760405162461bcd60e51b8152602060048201526032602482015260008051602062002bac83398151915260448201527131b2b4bb32b91034b6b83632b6b2b73a32b960711b606482015260840162000207565b805181602001fd5b6001600160e01b031916630a85bd0160e11b149050620005a2565b5060015b949350505050565b620005c2838383620002f360201b6200088a1760201c565b6001600160a01b03831662000620576200061a81600880546000838152600960205260408120829055600182018355919091527ff3f7a9fe364faab93b216da50a3214154f22a0a2b415b23a84c8169e8b636ee30155565b62000646565b816001600160a01b0316836001600160a01b031614620006465762000646838262000695565b6001600160a01b0382166200066057620002f38162000742565b826001600160a01b0316826001600160a01b031614620002f357620002f38282620007fc565b6001600160a01b03163b151590565b60006001620006af846200084d60201b62000c101760201c565b620006bb919062000c85565b6000838152600760205260409020549091508082146200070f576001600160a01b03841660009081526006602090815260408083208584528252808320548484528184208190558352600790915290208190555b5060009182526007602090815260408084208490556001600160a01b039094168352600681528383209183525290812055565b600854600090620007569060019062000c85565b6000838152600960205260408120546008805493945090928490811062000781576200078162000c9b565b906000526020600020015490508060088381548110620007a557620007a562000c9b565b6000918252602080832090910192909255828152600990915260408082208490558582528120556008805480620007e057620007e062000cb1565b6001900381819060005260206000200160009055905550505050565b600062000814836200084d60201b62000c101760201c565b6001600160a01b039093166000908152600660209081526040808320868452825280832085905593825260079052919091209190915550565b60006001600160a01b038216620008b95760405162461bcd60e51b815260206004820152602960248201527f4552433732313a2061646472657373207a65726f206973206e6f7420612076616044820152683634b21037bbb732b960b91b606482015260840162000207565b506001600160a01b031660009081526003602052604090205490565b634e487b7160e01b600052604160045260246000fd5b600181811c908216806200090057607f821691505b6020821081036200092157634e487b7160e01b600052602260045260246000fd5b50919050565b601f821115620002f357600081815260208120601f850160051c81016020861015620009505750805b601f850160051c820191505b8181101562000971578281556001016200095c565b505050505050565b81516001600160401b03811115620009955762000995620008d5565b620009ad81620009a68454620008eb565b8462000927565b602080601f831160018114620009e55760008415620009cc5750858301515b600019600386901b1c1916600185901b17855562000971565b600085815260208120601f198616915b8281101562000a1657888601518255948401946001909101908401620009f5565b508582101562000a355787850151600019600388901b60f8161c191681555b5050505050600190811b01905550565b60005b8381101562000a6257818101518382015260200162000a48565b50506000910152565b600082601f83011262000a7d57600080fd5b81516001600160401b038082111562000a9a5762000a9a620008d5565b604051601f8301601f19908116603f0116810190828211818310171562000ac55762000ac5620008d5565b8160405283815286602085880101111562000adf57600080fd5b62000af284602083016020890162000a45565b9695505050505050565b600080600080600060a0868803121562000b1557600080fd5b85516001600160401b038082111562000b2d57600080fd5b62000b3b89838a0162000a6b565b9650602088015191508082111562000b5257600080fd5b5062000b618882890162000a6b565b60408801516060890151919650945090506001600160a01b038116811462000b8857600080fd5b608087015190925060ff8116811462000ba057600080fd5b809150509295509295909350565b634e487b7160e01b600052601160045260246000fd5b60006001820162000bd95762000bd962000bae565b5060010190565b8082018082111562000bf65762000bf662000bae565b92915050565b600060018060a01b03808716835280861660208401525083604083015260806060830152825180608084015262000c3b8160a085016020870162000a45565b601f01601f19169190910160a00195945050505050565b60006020828403121562000c6557600080fd5b81516001600160e01b03198116811462000c7e57600080fd5b9392505050565b8181038181111562000bf65762000bf662000bae565b634e487b7160e01b600052603260045260246000fd5b634e487b7160e01b600052603160045260246000fd5b611ed58062000cd76000396000f3fe6080604052600436106101f95760003560e01c806370a082311161010d578063b88d4fde116100a0578063d5abeb011161006f578063d5abeb01146105da578063db2e21bc146105f0578063e985e9c5146105f8578063f2fde38b14610641578063f302315d1461066157600080fd5b8063b88d4fde14610564578063bdfa03de14610584578063c5cc6b6a1461059a578063c87b56dd146105ba57600080fd5b80638f5c2610116100dc5780638f5c2610146104ef57806395d89b411461050f578063a22cb46514610524578063b410908d1461054457600080fd5b806370a082311461047c578063715018a61461049c5780638c7ea24b146104b15780638da5cb5b146104d157600080fd5b80632f745c59116101905780634f6ccce71161015f5780634f6ccce7146103ed57806355f804b31461040d5780635c975abb1461042d5780636352211e146104475780636c0360eb1461046757600080fd5b80632f745c591461034d578063420a3b481461036d57806342842e0e146103a0578063438b6300146103c057600080fd5b8063095ea7b3116101cc578063095ea7b3146102af57806318160ddd146102cf57806323b872dd146102ee5780632a55205a1461030e57600080fd5b806301ffc9a7146101fe57806302329a291461023357806306fdde0314610255578063081812fc14610277575b600080fd5b34801561020a57600080fd5b5061021e610219366004611831565b610681565b60405190151581526020015b60405180910390f35b34801561023f57600080fd5b5061025361024e36600461186a565b610692565b005b34801561026157600080fd5b5061026a6106bc565b60405161022a91906118cb565b34801561028357600080fd5b506102976102923660046118de565b61074e565b6040516001600160a01b03909116815260200161022a565b3480156102bb57600080fd5b506102536102ca36600461190e565b610775565b3480156102db57600080fd5b506008545b60405190815260200161022a565b3480156102fa57600080fd5b50610253610309366004611938565b61088f565b34801561031a57600080fd5b5061032e610329366004611974565b6108c0565b604080516001600160a01b03909316835260208301919091520161022a565b34801561035957600080fd5b506102e061036836600461190e565b610915565b34801561037957600080fd5b5060105461038e90600160a01b900460ff1681565b60405160ff909116815260200161022a565b3480156103ac57600080fd5b506102536103bb366004611938565b6109ab565b3480156103cc57600080fd5b506103e06103db366004611996565b6109c6565b60405161022a91906119b1565b3480156103f957600080fd5b506102e06104083660046118de565b610a68565b34801561041957600080fd5b50610253610428366004611a81565b610afb565b34801561043957600080fd5b50600e5461021e9060ff1681565b34801561045357600080fd5b506102976104623660046118de565b610b22565b34801561047357600080fd5b5061026a610b82565b34801561048857600080fd5b506102e0610497366004611996565b610c10565b3480156104a857600080fd5b50610253610c96565b3480156104bd57600080fd5b506102536104cc36600461190e565b610caa565b3480156104dd57600080fd5b50600a546001600160a01b0316610297565b3480156104fb57600080fd5b5061025361050a366004611996565b610ccb565b34801561051b57600080fd5b5061026a610d04565b34801561053057600080fd5b5061025361053f366004611aca565b610d13565b34801561055057600080fd5b50601054610297906001600160a01b031681565b34801561057057600080fd5b5061025361057f366004611afd565b610d1e565b34801561059057600080fd5b506102e0600f5481565b3480156105a657600080fd5b50601254610297906001600160a01b031681565b3480156105c657600080fd5b5061026a6105d53660046118de565b610d56565b3480156105e657600080fd5b506102e0600d5481565b610253610ddd565b34801561060457600080fd5b5061021e610613366004611b79565b6001600160a01b03918216600090815260056020908152604080832093909416825291909152205460ff1690565b34801561064d57600080fd5b5061025361065c366004611996565b610e68565b34801561066d57600080fd5b50601154610297906001600160a01b031681565b600061068c82610eed565b92915050565b6010546001600160a01b031633146106a957600080fd5b600e805460ff1916911515919091179055565b6060600080546106cb90611ba3565b80601f01602080910402602001604051908101604052809291908181526020018280546106f790611ba3565b80156107445780601f1061071957610100808354040283529160200191610744565b820191906000526020600020905b81548152906001019060200180831161072757829003601f168201915b5050505050905090565b600061075982610f12565b506000908152600460205260409020546001600160a01b031690565b600061078082610b22565b9050806001600160a01b0316836001600160a01b0316036107f25760405162461bcd60e51b815260206004820152602160248201527f4552433732313a20617070726f76616c20746f2063757272656e74206f776e656044820152603960f91b60648201526084015b60405180910390fd5b336001600160a01b038216148061080e575061080e8133610613565b6108805760405162461bcd60e51b815260206004820152603e60248201527f4552433732313a20617070726f76652063616c6c6572206973206e6f7420746f60448201527f6b656e206f776e6572206e6f7220617070726f76656420666f7220616c6c000060648201526084016107e9565b61088a8383610f71565b505050565b6108993382610fdf565b6108b55760405162461bcd60e51b81526004016107e990611bdd565b61088a83838361105e565b60408051808201909152600b546001600160a01b038116808352600160a01b90910462ffffff16602083018190529091600091612710906109019086611c41565b61090b9190611c58565b9150509250929050565b600061092083610c10565b82106109825760405162461bcd60e51b815260206004820152602b60248201527f455243373231456e756d657261626c653a206f776e657220696e646578206f7560448201526a74206f6620626f756e647360a81b60648201526084016107e9565b506001600160a01b03919091166000908152600660209081526040808320938352929052205490565b61088a83838360405180602001604052806000815250610d1e565b606060006109d383610c10565b905060008167ffffffffffffffff8111156109f0576109f06119f5565b604051908082528060200260200182016040528015610a19578160200160208202803683370190505b50905060005b82811015610a6057610a318582610915565b828281518110610a4357610a43611c7a565b602090810291909101015280610a5881611c90565b915050610a1f565b509392505050565b6000610a7360085490565b8210610ad65760405162461bcd60e51b815260206004820152602c60248201527f455243373231456e756d657261626c653a20676c6f62616c20696e646578206f60448201526b7574206f6620626f756e647360a01b60648201526084016107e9565b60088281548110610ae957610ae9611c7a565b90600052602060002001549050919050565b6010546001600160a01b03163314610b1257600080fd5b600c610b1e8282611cf7565b5050565b6000818152600260205260408120546001600160a01b03168061068c5760405162461bcd60e51b8152602060048201526018602482015277115490cdcc8c4e881a5b9d985b1a59081d1bdad95b88125160421b60448201526064016107e9565b600c8054610b8f90611ba3565b80601f0160208091040260200160405190810160405280929190818152602001828054610bbb90611ba3565b8015610c085780601f10610bdd57610100808354040283529160200191610c08565b820191906000526020600020905b815481529060010190602001808311610beb57829003601f168201915b505050505081565b60006001600160a01b038216610c7a5760405162461bcd60e51b815260206004820152602960248201527f4552433732313a2061646472657373207a65726f206973206e6f7420612076616044820152683634b21037bbb732b960b91b60648201526084016107e9565b506001600160a01b031660009081526003602052604090205490565b610c9e611205565b610ca8600061125f565b565b6010546001600160a01b03163314610cc157600080fd5b610b1e82826112b1565b6010546001600160a01b03163314610ce257600080fd5b601080546001600160a01b0319166001600160a01b0392909216919091179055565b6060600180546106cb90611ba3565b610b1e33838361134d565b610d283383610fdf565b610d445760405162461bcd60e51b81526004016107e990611bdd565b610d508484848461141b565b50505050565b6000818152600260205260409020546060906001600160a01b0316610dd55760405162461bcd60e51b815260206004820152602f60248201527f4552433732314d657461646174613a2055524920717565727920666f72206e6f60448201526e3732bc34b9ba32b73a103a37b5b2b760891b60648201526084016107e9565b61068c61144e565b6010546001600160a01b03163314610df457600080fd5b6000610e08600a546001600160a01b031690565b6001600160a01b03164760405160006040518083038185875af1925050503d8060008114610e52576040519150601f19603f3d011682016040523d82523d6000602084013e610e57565b606091505b5050905080610e6557600080fd5b50565b610e70611205565b6001600160a01b038116610ed55760405162461bcd60e51b815260206004820152602660248201527f4f776e61626c653a206e6577206f776e657220697320746865207a65726f206160448201526564647265737360d01b60648201526084016107e9565b610e658161125f565b6001600160a01b03163b151590565b60006001600160e01b0319821663152a902d60e11b148061068c575061068c8261145d565b6000818152600260205260409020546001600160a01b0316610e655760405162461bcd60e51b8152602060048201526018602482015277115490cdcc8c4e881a5b9d985b1a59081d1bdad95b88125160421b60448201526064016107e9565b600081815260046020526040902080546001600160a01b0319166001600160a01b0384169081179091558190610fa682610b22565b6001600160a01b03167f8c5be1e5ebec7d5bd14f71427d1e84f3dd0314c0f7b2291e5b200ac8c7c3b92560405160405180910390a45050565b600080610feb83610b22565b9050806001600160a01b0316846001600160a01b0316148061103257506001600160a01b0380821660009081526005602090815260408083209388168352929052205460ff165b806110565750836001600160a01b031661104b8461074e565b6001600160a01b0316145b949350505050565b826001600160a01b031661107182610b22565b6001600160a01b0316146110d55760405162461bcd60e51b815260206004820152602560248201527f4552433732313a207472616e736665722066726f6d20696e636f72726563742060448201526437bbb732b960d91b60648201526084016107e9565b6001600160a01b0382166111375760405162461bcd60e51b8152602060048201526024808201527f4552433732313a207472616e7366657220746f20746865207a65726f206164646044820152637265737360e01b60648201526084016107e9565b611142838383611482565b61114d600082610f71565b6001600160a01b0383166000908152600360205260408120805460019290611176908490611db7565b90915550506001600160a01b03821660009081526003602052604081208054600192906111a4908490611dca565b909155505060008181526002602052604080822080546001600160a01b0319166001600160a01b0386811691821790925591518493918716917fddf252ad1be2c89b69c2b068fc378daa952ba7f163c4a11628f55a4df523b3ef91a4505050565b600a546001600160a01b03163314610ca85760405162461bcd60e51b815260206004820181905260248201527f4f776e61626c653a2063616c6c6572206973206e6f7420746865206f776e657260448201526064016107e9565b600a80546001600160a01b038381166001600160a01b0319831681179093556040519116919082907f8be0079c531659141344cd1fd0a4f28419497f9722a3daafe3b4186f6b6457e090600090a35050565b6127108111156113035760405162461bcd60e51b815260206004820152601a60248201527f45524332393831526f79616c746965733a20546f6f206869676800000000000060448201526064016107e9565b604080518082019091526001600160a01b0390921680835262ffffff9091166020909201829052600b8054600160a01b9093026001600160b81b0319909316909117919091179055565b816001600160a01b0316836001600160a01b0316036113ae5760405162461bcd60e51b815260206004820152601960248201527f4552433732313a20617070726f766520746f2063616c6c65720000000000000060448201526064016107e9565b6001600160a01b03838116600081815260056020908152604080832094871680845294825291829020805460ff191686151590811790915591519182527f17307eab39ab6107e8899845ad3d59bd9653f200f220920489ca2b5937696c31910160405180910390a3505050565b61142684848461105e565b6114328484848461153a565b610d505760405162461bcd60e51b81526004016107e990611ddd565b6060600c80546106cb90611ba3565b60006001600160e01b0319821663780e9d6360e01b148061068c575061068c8261163b565b6001600160a01b0383166114dd576114d881600880546000838152600960205260408120829055600182018355919091527ff3f7a9fe364faab93b216da50a3214154f22a0a2b415b23a84c8169e8b636ee30155565b611500565b816001600160a01b0316836001600160a01b03161461150057611500838261168b565b6001600160a01b0382166115175761088a81611728565b826001600160a01b0316826001600160a01b03161461088a5761088a82826117d7565b60006001600160a01b0384163b1561163057604051630a85bd0160e11b81526001600160a01b0385169063150b7a029061157e903390899088908890600401611e2f565b6020604051808303816000875af19250505080156115b9575060408051601f3d908101601f191682019092526115b691810190611e6c565b60015b611616573d8080156115e7576040519150601f19603f3d011682016040523d82523d6000602084013e6115ec565b606091505b50805160000361160e5760405162461bcd60e51b81526004016107e990611ddd565b805181602001fd5b6001600160e01b031916630a85bd0160e11b149050611056565b506001949350505050565b60006001600160e01b031982166380ac58cd60e01b148061166c57506001600160e01b03198216635b5e139f60e01b145b8061068c57506301ffc9a760e01b6001600160e01b031983161461068c565b6000600161169884610c10565b6116a29190611db7565b6000838152600760205260409020549091508082146116f5576001600160a01b03841660009081526006602090815260408083208584528252808320548484528184208190558352600790915290208190555b5060009182526007602090815260408084208490556001600160a01b039094168352600681528383209183525290812055565b60085460009061173a90600190611db7565b6000838152600960205260408120546008805493945090928490811061176257611762611c7a565b90600052602060002001549050806008838154811061178357611783611c7a565b60009182526020808320909101929092558281526009909152604080822084905585825281205560088054806117bb576117bb611e89565b6001900381819060005260206000200160009055905550505050565b60006117e283610c10565b6001600160a01b039093166000908152600660209081526040808320868452825280832085905593825260079052919091209190915550565b6001600160e01b031981168114610e6557600080fd5b60006020828403121561184357600080fd5b813561184e8161181b565b9392505050565b8035801515811461186557600080fd5b919050565b60006020828403121561187c57600080fd5b61184e82611855565b6000815180845260005b818110156118ab5760208185018101518683018201520161188f565b506000602082860101526020601f19601f83011685010191505092915050565b60208152600061184e6020830184611885565b6000602082840312156118f057600080fd5b5035919050565b80356001600160a01b038116811461186557600080fd5b6000806040838503121561192157600080fd5b61192a836118f7565b946020939093013593505050565b60008060006060848603121561194d57600080fd5b611956846118f7565b9250611964602085016118f7565b9150604084013590509250925092565b6000806040838503121561198757600080fd5b50508035926020909101359150565b6000602082840312156119a857600080fd5b61184e826118f7565b6020808252825182820181905260009190848201906040850190845b818110156119e9578351835292840192918401916001016119cd565b50909695505050505050565b634e487b7160e01b600052604160045260246000fd5b600067ffffffffffffffff80841115611a2657611a266119f5565b604051601f8501601f19908116603f01168101908282118183101715611a4e57611a4e6119f5565b81604052809350858152868686011115611a6757600080fd5b858560208301376000602087830101525050509392505050565b600060208284031215611a9357600080fd5b813567ffffffffffffffff811115611aaa57600080fd5b8201601f81018413611abb57600080fd5b61105684823560208401611a0b565b60008060408385031215611add57600080fd5b611ae6836118f7565b9150611af460208401611855565b90509250929050565b60008060008060808587031215611b1357600080fd5b611b1c856118f7565b9350611b2a602086016118f7565b925060408501359150606085013567ffffffffffffffff811115611b4d57600080fd5b8501601f81018713611b5e57600080fd5b611b6d87823560208401611a0b565b91505092959194509250565b60008060408385031215611b8c57600080fd5b611b95836118f7565b9150611af4602084016118f7565b600181811c90821680611bb757607f821691505b602082108103611bd757634e487b7160e01b600052602260045260246000fd5b50919050565b6020808252602e908201527f4552433732313a2063616c6c6572206973206e6f7420746f6b656e206f776e6560408201526d1c881b9bdc88185c1c1c9bdd995960921b606082015260800190565b634e487b7160e01b600052601160045260246000fd5b808202811582820484141761068c5761068c611c2b565b600082611c7557634e487b7160e01b600052601260045260246000fd5b500490565b634e487b7160e01b600052603260045260246000fd5b600060018201611ca257611ca2611c2b565b5060010190565b601f82111561088a57600081815260208120601f850160051c81016020861015611cd05750805b601f850160051c820191505b81811015611cef57828155600101611cdc565b505050505050565b815167ffffffffffffffff811115611d1157611d116119f5565b611d2581611d1f8454611ba3565b84611ca9565b602080601f831160018114611d5a5760008415611d425750858301515b600019600386901b1c1916600185901b178555611cef565b600085815260208120601f198616915b82811015611d8957888601518255948401946001909101908401611d6a565b5085821015611da75787850151600019600388901b60f8161c191681555b5050505050600190811b01905550565b8181038181111561068c5761068c611c2b565b8082018082111561068c5761068c611c2b565b60208082526032908201527f4552433732313a207472616e7366657220746f206e6f6e20455243373231526560408201527131b2b4bb32b91034b6b83632b6b2b73a32b960711b606082015260800190565b6001600160a01b0385811682528416602082015260408101839052608060608201819052600090611e6290830184611885565b9695505050505050565b600060208284031215611e7e57600080fd5b815161184e8161181b565b634e487b7160e01b600052603160045260246000fdfea2646970667358221220c19c46f75d726f48f99c5047dcecb434d0987eb9528a2806bbb14daa5f52224864736f6c634300081100334552433732313a207472616e7366657220746f206e6f6e20455243373231526568747470733a2f2f61647370616365732e78797a2f616473706163652e6a736f6ea26469706673582212206fadef4593a9c25e3ab0518065e2491b15d3bd89ca1bf939475568bb180696bb64736f6c63430008110033",
  "devdoc": {
    "details": "when deploying make sure to get the right Tableland contract for desired chainupon deployment this contract creates three Tableland Tables:AdSpaces_{chain}_{tableID}, Campaigns_{chain}_{tableID}, Deals_{chain}_{tableID}Custom errors need to be added...",
    "kind": "dev",
    "methods": {
      "constructor": {
        "params": {
          "tablelandAddress": "see docs.tableland.xyz for contracts on chains"
        }
      },
      "createAdSpace(string,string,string,uint8,string)": {
        "details": "id and owner will be set automatically",
        "params": {
          "_asking_price": "price of new creating Adspace",
          "_name": "name of new creating Adspace",
          "_numNFTs": "amount of NFTs to mint to msg.sender of creation",
          "_size": "size of the AdSpaces: wide | small | scyscraper",
          "_website": "website where the AdSpace will be located"
        }
      },
      "createCampaign(string,string,string,string)": {
        "details": "owner will be auto assigned to msg.sender",
        "params": {
          "cid": "id of the affected AdSpace",
          "link": "ending timestamp (UNIX)",
          "size": "negotiated price for the deal"
        }
      },
      "createDeal(uint256,uint256,uint40,uint256)": {
        "params": {
          "_adspaceId": "id of the affected AdSpace",
          "_end": "ending timestamp (UNIX)",
          "_price": "negotiated price for the deal",
          "campaignId": "id of the affected campaign"
        }
      },
      "getAdSpaceAddress(uint256)": {
        "params": {
          "i": "the identifier (number) of the Adspace interested in"
        },
        "returns": {
          "_0": "address the addess of the AdSpace Contract with identifier i"
        }
      },
      "getAdSpaceTable()": {
        "returns": {
          "_0": "uint256 the full name of the current AdSpace Table of this AdSpaceFactory"
        }
      },
      "getAdSpaceTableId()": {
        "returns": {
          "_0": "uint256 the id of the current AdSpace Table of this AdSpaceFactory"
        }
      },
      "getCampaignTable()": {
        "returns": {
          "_0": "uint256 the full name of the current Campaign Table of this AdSpaceFactory"
        }
      },
      "getCampaignTableId()": {
        "returns": {
          "_0": "uint256 the id of the current Campaign Table of this AdSpaceFactory"
        }
      },
      "getCounterAdSpaces()": {
        "returns": {
          "_0": "uint256 the current amount of Adspaces created by this Factory"
        }
      },
      "getDealTable()": {
        "returns": {
          "_0": "uint256 he full name of the current Deal Table of this AdSpaceFactory"
        }
      },
      "getDealTableId()": {
        "returns": {
          "_0": "uint256 the id of the current Deal Table of this AdSpaceFactory"
        }
      },
      "onERC721Received(address,address,uint256,bytes)": {
        "details": "See {IERC721Receiver-onERC721Received}. Always returns `IERC721Receiver.onERC721Received.selector`."
      },
      "owner()": {
        "details": "Returns the address of the current owner."
      },
      "renounceOwnership()": {
        "details": "Leaves the contract without owner. It will not be possible to call `onlyOwner` functions anymore. Can only be called by the current owner. NOTE: Renouncing ownership will leave the contract without an owner, thereby removing any functionality that is only available to the owner."
      },
      "transferOwnership(address)": {
        "details": "Transfers ownership of the contract to a new account (`newOwner`). Can only be called by the current owner."
      }
    },
    "version": 1
  },
  "userdoc": {
    "kind": "user",
    "methods": {
      "createAdSpace(string,string,string,uint8,string)": {
        "notice": "create new AdSpace contract"
      },
      "createCampaign(string,string,string,string)": {
        "notice": "Creating a Campaign and inserting row on Tableland"
      },
      "createDeal(uint256,uint256,uint40,uint256)": {
        "notice": "Creating Deal and inserting row on Tablelandafter creating the deal, the Adspace Table will update on the affected row"
      }
    },
    "notice": "This contract is the controller of all Tableland interactionsand deployer of all the AdSpace contracts",
    "version": 1
  },
  "storageLayout": {
    "storage": [
      {
        "astId": 7,
        "contract": "contracts/AdSpaceFactory.sol:AdSpaceFactory",
        "label": "_owner",
        "offset": 0,
        "slot": "0",
        "type": "t_address"
      },
      {
        "astId": 2442,
        "contract": "contracts/AdSpaceFactory.sol:AdSpaceFactory",
        "label": "_tableland",
        "offset": 0,
        "slot": "1",
        "type": "t_contract(ITablelandTables)3102"
      },
      {
        "astId": 2444,
        "contract": "contracts/AdSpaceFactory.sol:AdSpaceFactory",
        "label": "_adspacetableid",
        "offset": 0,
        "slot": "2",
        "type": "t_uint256"
      },
      {
        "astId": 2446,
        "contract": "contracts/AdSpaceFactory.sol:AdSpaceFactory",
        "label": "_adSpaceTable",
        "offset": 0,
        "slot": "3",
        "type": "t_string_storage"
      },
      {
        "astId": 2448,
        "contract": "contracts/AdSpaceFactory.sol:AdSpaceFactory",
        "label": "_campaigntableid",
        "offset": 0,
        "slot": "4",
        "type": "t_uint256"
      },
      {
        "astId": 2450,
        "contract": "contracts/AdSpaceFactory.sol:AdSpaceFactory",
        "label": "_campaignTable",
        "offset": 0,
        "slot": "5",
        "type": "t_string_storage"
      },
      {
        "astId": 2452,
        "contract": "contracts/AdSpaceFactory.sol:AdSpaceFactory",
        "label": "_dealtableid",
        "offset": 0,
        "slot": "6",
        "type": "t_uint256"
      },
      {
        "astId": 2454,
        "contract": "contracts/AdSpaceFactory.sol:AdSpaceFactory",
        "label": "_dealTable",
        "offset": 0,
        "slot": "7",
        "type": "t_string_storage"
      },
      {
        "astId": 2457,
        "contract": "contracts/AdSpaceFactory.sol:AdSpaceFactory",
        "label": "_counter_adspaces",
        "offset": 0,
        "slot": "8",
        "type": "t_uint256"
      },
      {
        "astId": 2460,
        "contract": "contracts/AdSpaceFactory.sol:AdSpaceFactory",
        "label": "_counter_campaigns",
        "offset": 0,
        "slot": "9",
        "type": "t_uint256"
      },
      {
        "astId": 2463,
        "contract": "contracts/AdSpaceFactory.sol:AdSpaceFactory",
        "label": "_counter_deals",
        "offset": 0,
        "slot": "10",
        "type": "t_uint256"
      },
      {
        "astId": 2466,
        "contract": "contracts/AdSpaceFactory.sol:AdSpaceFactory",
        "label": "Adspaces",
        "offset": 0,
        "slot": "11",
        "type": "t_array(t_address)dyn_storage"
      }
    ],
    "types": {
      "t_address": {
        "encoding": "inplace",
        "label": "address",
        "numberOfBytes": "20"
      },
      "t_array(t_address)dyn_storage": {
        "base": "t_address",
        "encoding": "dynamic_array",
        "label": "address[]",
        "numberOfBytes": "32"
      },
      "t_contract(ITablelandTables)3102": {
        "encoding": "inplace",
        "label": "contract ITablelandTables",
        "numberOfBytes": "20"
      },
      "t_string_storage": {
        "encoding": "bytes",
        "label": "string",
        "numberOfBytes": "32"
      },
      "t_uint256": {
        "encoding": "inplace",
        "label": "uint256",
        "numberOfBytes": "32"
      }
    }
  }
}