{
  "address": "0x7109696709d8996E580D8c1C69e95fB32E905197",
  "abi": [
    {
      "inputs": [
        {
          "internalType": "address",
          "name": "tablelandAddress",
          "type": "address"
        }
      ],
      "stateMutability": "nonpayable",
      "type": "constructor"
    },
    {
      "anonymous": false,
      "inputs": [
        {
          "indexed": true,
          "internalType": "address",
          "name": "contractAddress",
          "type": "address"
        }
      ],
      "name": "AdSpaceCreated",
      "type": "event"
    },
    {
      "anonymous": false,
      "inputs": [
        {
          "indexed": true,
          "internalType": "uint256",
          "name": "AdSpaceId",
          "type": "uint256"
        }
      ],
      "name": "AdSpaceUpdated",
      "type": "event"
    },
    {
      "anonymous": false,
      "inputs": [
        {
          "indexed": true,
          "internalType": "uint256",
          "name": "CampaignId",
          "type": "uint256"
        }
      ],
      "name": "CampaignCreated",
      "type": "event"
    },
    {
      "anonymous": false,
      "inputs": [
        {
          "indexed": true,
          "internalType": "uint256",
          "name": "DealId",
          "type": "uint256"
        },
        {
          "indexed": true,
          "internalType": "uint256",
          "name": "CampaignId",
          "type": "uint256"
        },
        {
          "indexed": true,
          "internalType": "uint256",
          "name": "AdSpaceId",
          "type": "uint256"
        }
      ],
      "name": "DealCreated",
      "type": "event"
    },
    {
      "anonymous": false,
      "inputs": [
        {
          "indexed": true,
          "internalType": "address",
          "name": "previousOwner",
          "type": "address"
        },
        {
          "indexed": true,
          "internalType": "address",
          "name": "newOwner",
          "type": "address"
        }
      ],
      "name": "OwnershipTransferred",
      "type": "event"
    },
    {
      "inputs": [
        {
          "internalType": "string",
          "name": "_name",
          "type": "string"
        },
        {
          "internalType": "string",
          "name": "_website",
          "type": "string"
        },
        {
          "internalType": "string",
          "name": "_asking_price",
          "type": "string"
        },
        {
          "internalType": "uint8",
          "name": "_numNFTs",
          "type": "uint8"
        },
        {
          "internalType": "string",
          "name": "_size",
          "type": "string"
        }
      ],
      "name": "createAdSpace",
      "outputs": [],
      "stateMutability": "payable",
      "type": "function"
    },
    {
      "inputs": [
        {
          "internalType": "string",
          "name": "name",
          "type": "string"
        },
        {
          "internalType": "string",
          "name": "cid",
          "type": "string"
        },
        {
          "internalType": "string",
          "name": "size",
          "type": "string"
        },
        {
          "internalType": "string",
          "name": "link",
          "type": "string"
        }
      ],
      "name": "createCampaign",
      "outputs": [],
      "stateMutability": "payable",
      "type": "function"
    },
    {
      "inputs": [
        {
          "internalType": "uint256",
          "name": "_adspaceId",
          "type": "uint256"
        },
        {
          "internalType": "uint256",
          "name": "_price",
          "type": "uint256"
        },
        {
          "internalType": "uint40",
          "name": "_end_at",
          "type": "uint40"
        },
        {
          "internalType": "uint256",
          "name": "_campaignId",
          "type": "uint256"
        }
      ],
      "name": "createDeal",
      "outputs": [
        {
          "internalType": "uint256",
          "name": "",
          "type": "uint256"
        }
      ],
      "stateMutability": "payable",
      "type": "function"
    },
    {
      "inputs": [
        {
          "internalType": "uint256",
          "name": "i",
          "type": "uint256"
        }
      ],
      "name": "getAdSpaceAddress",
      "outputs": [
        {
          "internalType": "address",
          "name": "",
          "type": "address"
        }
      ],
      "stateMutability": "view",
      "type": "function"
    },
    {
      "inputs": [],
      "name": "getAdSpaceTable",
      "outputs": [
        {
          "internalType": "string",
          "name": "",
          "type": "string"
        }
      ],
      "stateMutability": "view",
      "type": "function"
    },
    {
      "inputs": [],
      "name": "getAdSpaceTableId",
      "outputs": [
        {
          "internalType": "uint256",
          "name": "",
          "type": "uint256"
        }
      ],
      "stateMutability": "view",
      "type": "function"
    },
    {
      "inputs": [],
      "name": "getCampaignTable",
      "outputs": [
        {
          "internalType": "string",
          "name": "",
          "type": "string"
        }
      ],
      "stateMutability": "view",
      "type": "function"
    },
    {
      "inputs": [],
      "name": "getCampaignTableId",
      "outputs": [
        {
          "internalType": "uint256",
          "name": "",
          "type": "uint256"
        }
      ],
      "stateMutability": "view",
      "type": "function"
    },
    {
      "inputs": [],
      "name": "getCounterAdSpaces",
      "outputs": [
        {
          "internalType": "uint256",
          "name": "",
          "type": "uint256"
        }
      ],
      "stateMutability": "view",
      "type": "function"
    },
    {
      "inputs": [],
      "name": "getDealTable",
      "outputs": [
        {
          "internalType": "string",
          "name": "",
          "type": "string"
        }
      ],
      "stateMutability": "view",
      "type": "function"
    },
    {
      "inputs": [],
      "name": "getDealTableId",
      "outputs": [
        {
          "internalType": "uint256",
          "name": "",
          "type": "uint256"
        }
      ],
      "stateMutability": "view",
      "type": "function"
    },
    {
      "inputs": [
        {
          "internalType": "address",
          "name": "",
          "type": "address"
        },
        {
          "internalType": "address",
          "name": "",
          "type": "address"
        },
        {
          "internalType": "uint256",
          "name": "",
          "type": "uint256"
        },
        {
          "internalType": "bytes",
          "name": "",
          "type": "bytes"
        }
      ],
      "name": "onERC721Received",
      "outputs": [
        {
          "internalType": "bytes4",
          "name": "",
          "type": "bytes4"
        }
      ],
      "stateMutability": "nonpayable",
      "type": "function"
    },
    {
      "inputs": [],
      "name": "owner",
      "outputs": [
        {
          "internalType": "address",
          "name": "",
          "type": "address"
        }
      ],
      "stateMutability": "view",
      "type": "function"
    },
    {
      "inputs": [],
      "name": "renounceOwnership",
      "outputs": [],
      "stateMutability": "nonpayable",
      "type": "function"
    },
    {
      "inputs": [
        {
          "internalType": "address",
          "name": "newOwner",
          "type": "address"
        }
      ],
      "name": "transferOwnership",
      "outputs": [],
      "stateMutability": "nonpayable",
      "type": "function"
    },
    {
      "inputs": [
        {
          "internalType": "uint256",
          "name": "_adspaceId",
          "type": "uint256"
        }
      ],
      "name": "verifyAdSpace",
      "outputs": [],
      "stateMutability": "nonpayable",
      "type": "function"
    }
  ],
  "transactionHash": "0xc87164611435eb6d602f7370de41d7813372029135d4ae01ef27cd3174e7d5c6",
  "args": [
    "0xc72e8a7be04f2469f8c2db3f1bdf69a7d516abba"
  ],
  "solcInputHash": "fba9a22c97b21f91d3f87fd964bc52cc",
  "bytecode": "0x6080604052600060085560006009556000600a553480156200002057600080fd5b5060405162004f4038038062004f4083398101604081905262000043916200046f565b6200004e336200027e565b600180546001600160a01b0319166001600160a01b03831617905560006200008246620002ce602090811b620007e617901c565b604051602001620000949190620004c7565b60408051601f198184030181529190529050620000b181620003ee565b600281905550620000cd46620002ce60201b620007e61760201c565b620000e5600254620002ce60201b620007e61760201c565b604051602001620000f8929190620005d7565b60405160208183030381529060405260039081620001179190620006da565b5060006200013046620002ce60201b620007e61760201c565b604051602001620001429190620007a6565b60408051601f1981840301815291905290506200015f81620003ee565b6004819055506200017b46620002ce60201b620007e61760201c565b62000193600454620002ce60201b620007e61760201c565b604051602001620001a69291906200086a565b60405160208183030381529060405260059081620001c59190620006da565b506000620001de46620002ce60201b620007e61760201c565b604051602001620001f09190620008c9565b60408051601f1981840301815291905290506200020d81620003ee565b6006819055506200022946620002ce60201b620007e61760201c565b62000241600654620002ce60201b620007e61760201c565b60405160200162000254929190620009b2565b60405160208183030381529060405260079081620002739190620006da565b505050505062000b23565b600080546001600160a01b038381166001600160a01b0319831681178455604051919092169283917f8be0079c531659141344cd1fd0a4f28419497f9722a3daafe3b4186f6b6457e09190a35050565b606081600003620002f65750506040805180820190915260018152600360fc1b602082015290565b8160005b81156200032657806200030d8162000a23565b91506200031e9050600a8362000a55565b9150620002fa565b6000816001600160401b0381111562000343576200034362000635565b6040519080825280601f01601f1916602001820160405280156200036e576020820181803683370190505b5090505b8415620003e6576200038660018362000a6c565b915062000395600a8662000a82565b620003a290603062000a99565b60f81b818381518110620003ba57620003ba62000aaf565b60200101906001600160f81b031916908160001a905350620003de600a8662000a55565b945062000372565b949350505050565b6001546040516303a9151b60e41b81526000916001600160a01b031690633a9151b09062000423903090869060040162000ac5565b6020604051808303816000875af115801562000443573d6000803e3d6000fd5b505050506040513d601f19601f8201168201806040525081019062000469919062000b09565b92915050565b6000602082840312156200048257600080fd5b81516001600160a01b03811681146200049a57600080fd5b9392505050565b60005b83811015620004be578181015183820152602001620004a4565b50506000910152565b7f435245415445205441424c4520416453706163657300000000000000000000008152605f60f81b6015820152600082516200050b816016850160208701620004a1565b7f2028616473706163655f696420494e5445474552205052494d415259204b455960169390910192830152507f2c6e616d6520544558542c207765627369746520544558542c2076657269666960368201527f656420494e54454745522c2073746174757320544558542c206f776e6572205460568201527f4558542c20636f6e747261637420544558542c2061736b696e675f707269636560768201527f20494e54454745522c2073697a652054455854293b0000000000000000000000609682015260ab01919050565b67416453706163657360c01b81526000605f60f81b806008840152845162000607816009860160208901620004a1565b8084019050816009820152845191506200062982600a830160208801620004a1565b01600a01949350505050565b634e487b7160e01b600052604160045260246000fd5b600181811c908216806200066057607f821691505b6020821081036200068157634e487b7160e01b600052602260045260246000fd5b50919050565b601f821115620006d557600081815260208120601f850160051c81016020861015620006b05750805b601f850160051c820191505b81811015620006d157828155600101620006bc565b5050505b505050565b81516001600160401b03811115620006f657620006f662000635565b6200070e816200070784546200064b565b8462000687565b602080601f8311600181146200074657600084156200072d5750858301515b600019600386901b1c1916600185901b178555620006d1565b600085815260208120601f198616915b82811015620007775788860151825594840194600190910190840162000756565b5085821015620007965787850151600019600388901b60f8161c191681555b5050505050600190811b01905550565b7f435245415445205441424c452043616d706169676e73000000000000000000008152605f60f81b601682015260008251620007ea816017850160208701620004a1565b7f202863616d706169676e5f696420494e5445474552205052494d415259204b4560179390910192830152507f592c6e616d6520544558542c2063696420544558542c2073697a65205445585460378201527f2c206c696e6b20544558542c206f776e65722054455854293b000000000000006057820152607001919050565b6843616d706169676e7360b81b81526000605f60f81b80600984015284516200089b81600a860160208901620004a1565b808401905081600a82015284519150620008bd82600b830160208801620004a1565b01600b01949350505050565b71435245415445205441424c45204465616c7360701b8152605f60f81b60128201526000825162000902816013850160208701620004a1565b7f20286465616c5f696420494e5445474552205052494d415259204b45592c206360139390910192830152507f616d706169676e5f69645f666b20494e54454745522c20616473706163655f6960338201527f645f666b20494e54454745522c20656e645f617420494e54454745522c20707260538201527f69636520494e54454745522c20737461727465645f617420494e5445474552296073820152603b60f81b6093820152609401919050565b644465616c7360d81b81526000605f60f81b8060058401528451620009df816006860160208901620004a1565b80840190508160068201528451915062000a01826007830160208801620004a1565b01600701949350505050565b634e487b7160e01b600052601160045260246000fd5b60006001820162000a385762000a3862000a0d565b5060010190565b634e487b7160e01b600052601260045260246000fd5b60008262000a675762000a6762000a3f565b500490565b8181038181111562000469576200046962000a0d565b60008262000a945762000a9462000a3f565b500690565b8082018082111562000469576200046962000a0d565b634e487b7160e01b600052603260045260246000fd5b60018060a01b0383168152604060208201526000825180604084015262000af4816060850160208701620004a1565b601f01601f1916919091016060019392505050565b60006020828403121562000b1c57600080fd5b5051919050565b61440d8062000b336000396000f3fe608060405260043610620001075760003560e01c8063a92f40061162000095578063c4d949031162000060578063c4d94903146200029f578063cf78aa7c14620002b7578063f2fde38b14620002ce578063f942aad114620002f357600080fd5b8063a92f40061462000232578063b47234401462000249578063b4b0310f1462000260578063b834044c146200028757600080fd5b8063715018a611620000d6578063715018a614620001aa578063863acc2d14620001c25780638da5cb5b14620001e7578063a46b2ea5146200021b57600080fd5b8063150b7a02146200010c578063412861b914620001595780635d6b036d146200017a5780636193d5411462000193575b600080fd5b3480156200011957600080fd5b506200013b6200012b36600462000ca2565b630a85bd0160e11b949350505050565b6040516001600160e01b031990911681526020015b60405180910390f35b3480156200016657600080fd5b506006545b60405190815260200162000150565b620001916200018b36600462000d51565b62000318565b005b348015620001a057600080fd5b506002546200016b565b348015620001b757600080fd5b5062000191620003ad565b348015620001cf57600080fd5b5062000191620001e136600462000dff565b620003c5565b348015620001f457600080fd5b506000546001600160a01b03165b6040516001600160a01b03909116815260200162000150565b3480156200022857600080fd5b506004546200016b565b620001916200024336600462000e19565b6200043f565b6200016b6200025a36600462000eef565b6200053a565b3480156200026d57600080fd5b506200027862000674565b60405162000150919062000f8e565b3480156200029457600080fd5b50620002786200070e565b348015620002ac57600080fd5b50620002786200071f565b348015620002c457600080fd5b506008546200016b565b348015620002db57600080fd5b5062000191620002ed36600462000fa3565b62000730565b3480156200030057600080fd5b50620002026200031236600462000dff565b620007b3565b60006005858585856200032d33601462000907565b6040516020016200034496959493929190620010c0565b6040516020818303038152906040529050620003636004548262000aca565b600980549060006200037583620011e3565b90915550506009546040517fbc0a5edd152fa5b886dcae82c5c109d113708653b4b9c0224549ccdf715af94e90600090a25050505050565b620003b762000b38565b620003c3600062000b94565b565b620003cf62000b38565b60006003620003de83620007e6565b604051602001620003f1929190620011ff565b6040516020818303038152906040529050620004106002548262000aca565b60405182907fdf6133baa6089c4a19ab9a4892b1163e533f741b01f4e4604c738c02fac47d7790600090a25050565b6000856008543385604051620004559062000be4565b62000464949392919062001296565b604051809103906000f08015801562000481573d6000803e3d6000fd5b5090506000600387876200049733601462000907565b620004ad866001600160a01b0316601462000907565b8988604051602001620004c79796959493929190620012f5565b6040516020818303038152906040529050620004e66002548262000aca565b60088054906000620004f883620011e3565b90915550506040516001600160a01b038316907f2e681b0bce38884fe3d327a27588b0edcdfcedd63d1e1ba737f37c04ba29cdf290600090a250505050505050565b60008060076200054a84620007e6565b6200055588620007e6565b620005678764ffffffffff16620007e6565b6200057289620007e6565b6200057d42620007e6565b604051602001620005949695949392919062001459565b6040516020818303038152906040529050620005b36006548262000aca565b600a8054906000620005c583620011e3565b9091555050600a54604051879185917f513a1504cb2af4e1c25fe1dddf73d9471d716dda4e84b8b626c63f0921c0035b90600090a4600060036200060988620007e6565b6040516020016200061c9291906200156a565b60405160208183030381529060405290506200063b6002548262000aca565b60405187907fdf6133baa6089c4a19ab9a4892b1163e533f741b01f4e4604c738c02fac47d7790600090a25050600a5495945050505050565b606060058054620006859062000fc1565b80601f0160208091040260200160405190810160405280929190818152602001828054620006b39062000fc1565b8015620007045780601f10620006d85761010080835404028352916020019162000704565b820191906000526020600020905b815481529060010190602001808311620006e657829003601f168201915b5050505050905090565b606060078054620006859062000fc1565b606060038054620006859062000fc1565b6200073a62000b38565b6001600160a01b038116620007a55760405162461bcd60e51b815260206004820152602660248201527f4f776e61626c653a206e6577206f776e657220697320746865207a65726f206160448201526564647265737360d01b60648201526084015b60405180910390fd5b620007b08162000b94565b50565b6000600b8281548110620007cb57620007cb620015f3565b6000918252602090912001546001600160a01b031692915050565b6060816000036200080e5750506040805180820190915260018152600360fc1b602082015290565b8160005b81156200083e57806200082581620011e3565b9150620008369050600a836200161f565b915062000812565b60008167ffffffffffffffff8111156200085c576200085c62000c0f565b6040519080825280601f01601f19166020018201604052801562000887576020820181803683370190505b5090505b8415620008ff576200089f60018362001636565b9150620008ae600a866200164c565b620008bb90603062001663565b60f81b818381518110620008d357620008d3620015f3565b60200101906001600160f81b031916908160001a905350620008f7600a866200161f565b94506200088b565b949350505050565b606060006200091883600262001679565b6200092590600262001663565b67ffffffffffffffff81111562000940576200094062000c0f565b6040519080825280601f01601f1916602001820160405280156200096b576020820181803683370190505b509050600360fc1b81600081518110620009895762000989620015f3565b60200101906001600160f81b031916908160001a905350600f60fb1b81600181518110620009bb57620009bb620015f3565b60200101906001600160f81b031916908160001a9053506000620009e184600262001679565b620009ee90600162001663565b90505b600181111562000a70576f181899199a1a9b1b9c1cb0b131b232b360811b85600f166010811062000a265762000a26620015f3565b1a60f81b82828151811062000a3f5762000a3f620015f3565b60200101906001600160f81b031916908160001a90535060049490941c9362000a688162001693565b9050620009f1565b50831562000ac15760405162461bcd60e51b815260206004820181905260248201527f537472696e67733a20686578206c656e67746820696e73756666696369656e7460448201526064016200079c565b90505b92915050565b60015460405163757ae82760e11b81526001600160a01b039091169063eaf5d04e9062000b0090309086908690600401620016ad565b600060405180830381600087803b15801562000b1b57600080fd5b505af115801562000b30573d6000803e3d6000fd5b505050505050565b6000546001600160a01b03163314620003c35760405162461bcd60e51b815260206004820181905260248201527f4f776e61626c653a2063616c6c6572206973206e6f7420746865206f776e657260448201526064016200079c565b600080546001600160a01b038381166001600160a01b0319831681178455604051919092169283917f8be0079c531659141344cd1fd0a4f28419497f9722a3daafe3b4186f6b6457e09190a35050565b612cf880620016e083390190565b80356001600160a01b038116811462000c0a57600080fd5b919050565b634e487b7160e01b600052604160045260246000fd5b600067ffffffffffffffff8084111562000c435762000c4362000c0f565b604051601f8501601f19908116603f0116810190828211818310171562000c6e5762000c6e62000c0f565b8160405280935085815286868601111562000c8857600080fd5b858560208301376000602087830101525050509392505050565b6000806000806080858703121562000cb957600080fd5b62000cc48562000bf2565b935062000cd46020860162000bf2565b925060408501359150606085013567ffffffffffffffff81111562000cf857600080fd5b8501601f8101871362000d0a57600080fd5b62000d1b8782356020840162000c25565b91505092959194509250565b600082601f83011262000d3957600080fd5b62000d4a8383356020850162000c25565b9392505050565b6000806000806080858703121562000d6857600080fd5b843567ffffffffffffffff8082111562000d8157600080fd5b62000d8f8883890162000d27565b9550602087013591508082111562000da657600080fd5b62000db48883890162000d27565b9450604087013591508082111562000dcb57600080fd5b62000dd98883890162000d27565b9350606087013591508082111562000df057600080fd5b5062000d1b8782880162000d27565b60006020828403121562000e1257600080fd5b5035919050565b600080600080600060a0868803121562000e3257600080fd5b853567ffffffffffffffff8082111562000e4b57600080fd5b62000e5989838a0162000d27565b9650602088013591508082111562000e7057600080fd5b62000e7e89838a0162000d27565b9550604088013591508082111562000e9557600080fd5b62000ea389838a0162000d27565b94506060880135915060ff8216821462000ebc57600080fd5b9092506080870135908082111562000ed357600080fd5b5062000ee28882890162000d27565b9150509295509295909350565b6000806000806080858703121562000f0657600080fd5b8435935060208501359250604085013564ffffffffff8116811462000f2a57600080fd5b9396929550929360600135925050565b60005b8381101562000f5757818101518382015260200162000f3d565b50506000910152565b6000815180845262000f7a81602086016020860162000f3a565b601f01601f19169290920160200192915050565b60208152600062000d4a602083018462000f60565b60006020828403121562000fb657600080fd5b62000d4a8262000bf2565b600181811c9082168062000fd657607f821691505b60208210810362000ff757634e487b7160e01b600052602260045260246000fd5b50919050565b8054600090600181811c90808316806200101857607f831692505b602080841082036200103a57634e487b7160e01b600052602260045260246000fd5b818015620010515760018114620010675762001096565b60ff198616895284151585028901965062001096565b60008881526020902060005b868110156200108e5781548b82015290850190830162001073565b505084890196505b50505050505092915050565b60008151620010b681856020860162000f3a565b9290920192915050565b6b024a729a2a92a1024a72a27960a51b81526000620010e3600c83018962000ffd565b7f20286e616d652c206369642c2073697a652c206c696e6b2c206f776e6572292081526856414c55455320282760b81b602082015287516200112d816029840160208c0162000f3a565b80820191505062272c2760e81b80602983015287516200115581602c850160208c0162000f3a565b602c920191820181905286516200117481602f850160208b0162000f3a565b602f92019182015284516200119181603284016020890162000f3a565b01620011a56032820162272c2760e81b9052565b620011b46035820185620010a2565b6227293b60e81b81526003019998505050505050505050565b634e487b7160e01b600052601160045260246000fd5b600060018201620011f857620011f8620011cd565b5060010190565b6602aa82220aa22960cd1b815260006200121d600783018562000ffd565b7f20534554207665726966696564203d202731272c20737461747573203d20274181527f7661696c61626c652720574845524520616473706163655f6964203d20270000602082015283516200127b81603e84016020880162000f3a565b61273b60f01b603e9290910191820152604001949350505050565b60a081526000620012ab60a083018762000f60565b82810360208401526008815267244144535041434560c01b60208201526040810191505084604083015260018060a01b038416606083015260ff8316608083015295945050505050565b6b024a729a2a92a1024a72a27960a51b8152600062001318600c83018a62000ffd565b7f20286e616d652c776562736974652c76657269666965642c7374617475732c6f81527f776e65722c636f6e74726163742c61736b696e675f70726963652c73697a65296020820152692056414c55455320282760b01b604082015262001383604a82018a620010a2565b62272c2760e81b8152905060036200139e8183018a620010a2565b62272c2760e81b81529150600360fc1b8282015262272c2760e81b6004830152732832b73234b733902b32b934b334b1b0ba34b7b760611b600783015262272c2760e81b601b830152620013f6601e830189620010a2565b62272c2760e81b815291506200140f81830188620010a2565b62272c2760e81b815291506200142881830187620010a2565b62272c2760e81b815291506200144181830186620010a2565b6227293b60e81b8152019a9950505050505050505050565b6b024a729a2a92a1024a72a27960a51b815260006200147c600c83018962000ffd565b7f202863616d706169676e5f69645f666b2c20616473706163655f69645f666b2c81527f20656e645f61742c2070726963652c20737461727465645f6174292056414c55602082015264455320282760d81b60408201528751620014e8816045840160208c0162000f3a565b80820191505062272c2760e81b806045830152875162001510816048850160208c0162000f3a565b604892019182015285516200152d81604b840160208a0162000f3a565b0162001541604b820162272c2760e81b9052565b62001550604e820186620010a2565b62272c2760e81b81529050620011b46003820185620010a2565b6602aa82220aa22960cd1b8152600062001588600783018562000ffd565b7f2053455420737461747573203d2752756e6e696e67204164732720574845524581526e20616473706163655f6964203d202760881b60208201528351620015d881602f84016020880162000f3a565b61273b60f01b602f9290910191820152603101949350505050565b634e487b7160e01b600052603260045260246000fd5b634e487b7160e01b600052601260045260246000fd5b60008262001631576200163162001609565b500490565b8181038181111562000ac45762000ac4620011cd565b6000826200165e576200165e62001609565b500690565b8082018082111562000ac45762000ac4620011cd565b808202811582820484141762000ac45762000ac4620011cd565b600081620016a557620016a5620011cd565b506000190190565b60018060a01b0384168152826020820152606060408201526000620016d6606083018462000f60565b9594505050505056fe60e0604052602160808181529062002cd760a039600a9062000022908262000882565b506014600b55600c805460ff19169055601080546001600160a01b0319167349cb5fa951ad2abbc4d14239bfe215754c7df0301790553480156200006557600080fd5b5060405162002cf838038062002cf8833981016040819052620000889162000a05565b8484600062000098838262000882565b506001620000a7828262000882565b505050600d839055600c8054610100600160a81b03191674da10009cbd5d07dd0cecc66161fc93d7c9000da10017905560118054336001600160a01b0319918216811790925560128054909116909117905560ff81166200010757600080fd5b8060ff16600b54116200011d57600b5462000122565b8060ff165b600b5560015b600b54811162000153576200013e83826200015f565b806200014a8162000acd565b91505062000128565b50505050505062000bd0565b620001818282604051806020016040528060008152506200018560201b60201c565b5050565b62000191838362000201565b620001a0600084848462000357565b620001fc5760405162461bcd60e51b8152602060048201526032602482015260008051602062002cb783398151915260448201527131b2b4bb32b91034b6b83632b6b2b73a32b960711b60648201526084015b60405180910390fd5b505050565b6001600160a01b038216620002595760405162461bcd60e51b815260206004820181905260248201527f4552433732313a206d696e7420746f20746865207a65726f20616464726573736044820152606401620001f3565b6000818152600260205260409020546001600160a01b031615620002c05760405162461bcd60e51b815260206004820152601c60248201527f4552433732313a20746f6b656e20616c7265616479206d696e746564000000006044820152606401620001f3565b620002ce60008383620004b3565b6001600160a01b0382166000908152600360205260408120805460019290620002f990849062000ae9565b909155505060008181526002602052604080822080546001600160a01b0319166001600160a01b03861690811790915590518392907fddf252ad1be2c89b69c2b068fc378daa952ba7f163c4a11628f55a4df523b3ef908290a45050565b600062000378846001600160a01b03166200058f60201b620012251760201c565b15620004a757604051630a85bd0160e11b81526001600160a01b0385169063150b7a0290620003b290339089908890889060040162000b05565b6020604051808303816000875af1925050508015620003f0575060408051601f3d908101601f19168201909252620003ed9181019062000b5b565b60015b6200048c573d80801562000421576040519150601f19603f3d011682016040523d82523d6000602084013e62000426565b606091505b508051600003620004845760405162461bcd60e51b8152602060048201526032602482015260008051602062002cb783398151915260448201527131b2b4bb32b91034b6b83632b6b2b73a32b960711b6064820152608401620001f3565b805181602001fd5b6001600160e01b031916630a85bd0160e11b149050620004ab565b5060015b949350505050565b620004cb838383620001fc60201b620008901760201c565b6001600160a01b03831662000529576200052381600880546000838152600960205260408120829055600182018355919091527ff3f7a9fe364faab93b216da50a3214154f22a0a2b415b23a84c8169e8b636ee30155565b6200054f565b816001600160a01b0316836001600160a01b0316146200054f576200054f83826200059e565b6001600160a01b0382166200056957620001fc816200064b565b826001600160a01b0316826001600160a01b031614620001fc57620001fc828262000705565b6001600160a01b03163b151590565b60006001620005b8846200075660201b62000e5a1760201c565b620005c4919062000b8e565b60008381526007602052604090205490915080821462000618576001600160a01b03841660009081526006602090815260408083208584528252808320548484528184208190558352600790915290208190555b5060009182526007602090815260408084208490556001600160a01b039094168352600681528383209183525290812055565b6008546000906200065f9060019062000b8e565b600083815260096020526040812054600880549394509092849081106200068a576200068a62000ba4565b906000526020600020015490508060088381548110620006ae57620006ae62000ba4565b6000918252602080832090910192909255828152600990915260408082208490558582528120556008805480620006e957620006e962000bba565b6001900381819060005260206000200160009055905550505050565b60006200071d836200075660201b62000e5a1760201c565b6001600160a01b039093166000908152600660209081526040808320868452825280832085905593825260079052919091209190915550565b60006001600160a01b038216620007c25760405162461bcd60e51b815260206004820152602960248201527f4552433732313a2061646472657373207a65726f206973206e6f7420612076616044820152683634b21037bbb732b960b91b6064820152608401620001f3565b506001600160a01b031660009081526003602052604090205490565b634e487b7160e01b600052604160045260246000fd5b600181811c908216806200080957607f821691505b6020821081036200082a57634e487b7160e01b600052602260045260246000fd5b50919050565b601f821115620001fc57600081815260208120601f850160051c81016020861015620008595750805b601f850160051c820191505b818110156200087a5782815560010162000865565b505050505050565b81516001600160401b038111156200089e576200089e620007de565b620008b681620008af8454620007f4565b8462000830565b602080601f831160018114620008ee5760008415620008d55750858301515b600019600386901b1c1916600185901b1785556200087a565b600085815260208120601f198616915b828110156200091f57888601518255948401946001909101908401620008fe565b50858210156200093e5787850151600019600388901b60f8161c191681555b5050505050600190811b01905550565b60005b838110156200096b57818101518382015260200162000951565b50506000910152565b600082601f8301126200098657600080fd5b81516001600160401b0380821115620009a357620009a3620007de565b604051601f8301601f19908116603f01168101908282118183101715620009ce57620009ce620007de565b81604052838152866020858801011115620009e857600080fd5b620009fb8460208301602089016200094e565b9695505050505050565b600080600080600060a0868803121562000a1e57600080fd5b85516001600160401b038082111562000a3657600080fd5b62000a4489838a0162000974565b9650602088015191508082111562000a5b57600080fd5b5062000a6a8882890162000974565b60408801516060890151919650945090506001600160a01b038116811462000a9157600080fd5b608087015190925060ff8116811462000aa957600080fd5b809150509295509295909350565b634e487b7160e01b600052601160045260246000fd5b60006001820162000ae25762000ae262000ab7565b5060010190565b8082018082111562000aff5762000aff62000ab7565b92915050565b600060018060a01b03808716835280861660208401525083604083015260806060830152825180608084015262000b448160a08501602087016200094e565b601f01601f19169190910160a00195945050505050565b60006020828403121562000b6e57600080fd5b81516001600160e01b03198116811462000b8757600080fd5b9392505050565b8181038181111562000aff5762000aff62000ab7565b634e487b7160e01b600052603260045260246000fd5b634e487b7160e01b600052603160045260246000fd5b6120d78062000be06000396000f3fe6080604052600436106101ee5760003560e01c806370a082311161010d578063bdfa03de116100a0578063cb4378811161006f578063cb4378811461059c578063d5abeb01146105e6578063db2e21bc146105fc578063e985e9c514610604578063f302315d1461064d57600080fd5b8063bdfa03de14610521578063be22f54614610537578063c5cc6b6a1461055c578063c87b56dd1461057c57600080fd5b8063a22cb465116100dc578063a22cb46514610494578063b410908d146104b4578063b88d4fde146104d4578063bbe6dbdb146104f457600080fd5b806370a082311461041f5780638f5c26101461043f5780639574b5471461045f57806395d89b411461047f57600080fd5b80632f745c591161018557806355f804b31161015457806355f804b3146103b05780635c975abb146103d05780636352211e146103ea5780636c0360eb1461040a57600080fd5b80632f745c591461032357806342842e0e14610343578063438b6300146103635780634f6ccce71461039057600080fd5b8063095ea7b3116101c1578063095ea7b3146102a457806318160ddd146102c457806323b872dd146102e35780632e1a7d4d1461030357600080fd5b806301ffc9a7146101f357806302329a291461022857806306fdde031461024a578063081812fc1461026c575b600080fd5b3480156101ff57600080fd5b5061021361020e3660046119e6565b61066d565b60405190151581526020015b60405180910390f35b34801561023457600080fd5b50610248610243366004611a18565b610698565b005b34801561025657600080fd5b5061025f6106c2565b60405161021f9190611a7b565b34801561027857600080fd5b5061028c610287366004611a8e565b610754565b6040516001600160a01b03909116815260200161021f565b3480156102b057600080fd5b506102486102bf366004611ac3565b61077b565b3480156102d057600080fd5b506008545b60405190815260200161021f565b3480156102ef57600080fd5b506102486102fe366004611aed565b610895565b34801561030f57600080fd5b5061024861031e366004611a8e565b6108c6565b34801561032f57600080fd5b506102d561033e366004611ac3565b610b5f565b34801561034f57600080fd5b5061024861035e366004611aed565b610bf5565b34801561036f57600080fd5b5061038361037e366004611b29565b610c10565b60405161021f9190611b44565b34801561039c57600080fd5b506102d56103ab366004611a8e565b610cb2565b3480156103bc57600080fd5b506102486103cb366004611c14565b610d45565b3480156103dc57600080fd5b50600c546102139060ff1681565b3480156103f657600080fd5b5061028c610405366004611a8e565b610d6c565b34801561041657600080fd5b5061025f610dcc565b34801561042b57600080fd5b506102d561043a366004611b29565b610e5a565b34801561044b57600080fd5b5061024861045a366004611b29565b610ee0565b34801561046b57600080fd5b5061024861047a366004611c5d565b610f19565b34801561048b57600080fd5b5061025f6110d2565b3480156104a057600080fd5b506102486104af366004611c89565b6110e1565b3480156104c057600080fd5b5060105461028c906001600160a01b031681565b3480156104e057600080fd5b506102486104ef366004611cc0565b6110ec565b34801561050057600080fd5b506102d561050f366004611a8e565b600f6020526000908152604090205481565b34801561052d57600080fd5b506102d5600d5481565b34801561054357600080fd5b50600c5461028c9061010090046001600160a01b031681565b34801561056857600080fd5b5060125461028c906001600160a01b031681565b34801561058857600080fd5b5061025f610597366004611a8e565b611124565b3480156105a857600080fd5b506105d06105b7366004611a8e565b600e6020526000908152604090205464ffffffffff1681565b60405164ffffffffff909116815260200161021f565b3480156105f257600080fd5b506102d5600b5481565b6102486111ab565b34801561061057600080fd5b5061021361061f366004611d3c565b6001600160a01b03918216600090815260056020908152604080832093909416825291909152205460ff1690565b34801561065957600080fd5b5060115461028c906001600160a01b031681565b60006001600160e01b0319821663780e9d6360e01b1480610692575061069282611234565b92915050565b6010546001600160a01b031633146106af57600080fd5b600c805460ff1916911515919091179055565b6060600080546106d190611d6f565b80601f01602080910402602001604051908101604052809291908181526020018280546106fd90611d6f565b801561074a5780601f1061071f5761010080835404028352916020019161074a565b820191906000526020600020905b81548152906001019060200180831161072d57829003601f168201915b5050505050905090565b600061075f82611284565b506000908152600460205260409020546001600160a01b031690565b600061078682610d6c565b9050806001600160a01b0316836001600160a01b0316036107f85760405162461bcd60e51b815260206004820152602160248201527f4552433732313a20617070726f76616c20746f2063757272656e74206f776e656044820152603960f91b60648201526084015b60405180910390fd5b336001600160a01b03821614806108145750610814813361061f565b6108865760405162461bcd60e51b815260206004820152603e60248201527f4552433732313a20617070726f76652063616c6c6572206973206e6f7420746f60448201527f6b656e206f776e6572206e6f7220617070726f76656420666f7220616c6c000060648201526084016107ef565b61089083836112e3565b505050565b61089f3382611351565b6108bb5760405162461bcd60e51b81526004016107ef90611da9565b6108908383836113d0565b600060015b600b5481116109095760006108df82610d6c565b9050336001600160a01b038216036108f657600192505b508061090181611e0d565b9150506108cb565b5060018115151461095c5760405162461bcd60e51b815260206004820152601a60248201527f596f7520617265206e6f7420616e204e465420486f6c6465722100000000000060448201526064016107ef565b6000828152600e60205260409020544264ffffffffff909116111561098057600080fd5b6000828152600f60205260408120549061099b606483611e26565b905060006109a98284611e48565b600c5460105460405163a9059cbb60e01b81526001600160a01b03918216600482015260248101869052929350610100909104169063a9059cbb906044016020604051808303816000875af1158015610a06573d6000803e3d6000fd5b505050506040513d601f19601f82011682018060405250810190610a2a9190611e5b565b506000600b5482610a3b9190611e26565b905060015b600b548111610b2f576000610a5482610d6c565b600c5460405163a9059cbb60e01b81526001600160a01b038084166004830152602482018790529293506101009091049091169063a9059cbb906044016020604051808303816000875af1158015610ab0573d6000803e3d6000fd5b505050506040513d601f19601f82011682018060405250810190610ad49190611e5b565b50600d5488826001600160a01b03167fe1c901fee1a2719d235ef5a378ad022b95d70e793277219a0dd8f0db32085fa786604051610b1491815260200190565b60405180910390a45080610b2781611e0d565b915050610a40565b50505060009384525050600e60209081526040808420805464ffffffffff19169055600f90915282209190915550565b6000610b6a83610e5a565b8210610bcc5760405162461bcd60e51b815260206004820152602b60248201527f455243373231456e756d657261626c653a206f776e657220696e646578206f7560448201526a74206f6620626f756e647360a81b60648201526084016107ef565b506001600160a01b03919091166000908152600660209081526040808320938352929052205490565b610890838383604051806020016040528060008152506110ec565b60606000610c1d83610e5a565b905060008167ffffffffffffffff811115610c3a57610c3a611b88565b604051908082528060200260200182016040528015610c63578160200160208202803683370190505b50905060005b82811015610caa57610c7b8582610b5f565b828281518110610c8d57610c8d611e78565b602090810291909101015280610ca281611e0d565b915050610c69565b509392505050565b6000610cbd60085490565b8210610d205760405162461bcd60e51b815260206004820152602c60248201527f455243373231456e756d657261626c653a20676c6f62616c20696e646578206f60448201526b7574206f6620626f756e647360a01b60648201526084016107ef565b60088281548110610d3357610d33611e78565b90600052602060002001549050919050565b6010546001600160a01b03163314610d5c57600080fd5b600a610d688282611edc565b5050565b6000818152600260205260408120546001600160a01b0316806106925760405162461bcd60e51b8152602060048201526018602482015277115490cdcc8c4e881a5b9d985b1a59081d1bdad95b88125160421b60448201526064016107ef565b600a8054610dd990611d6f565b80601f0160208091040260200160405190810160405280929190818152602001828054610e0590611d6f565b8015610e525780601f10610e2757610100808354040283529160200191610e52565b820191906000526020600020905b815481529060010190602001808311610e3557829003601f168201915b505050505081565b60006001600160a01b038216610ec45760405162461bcd60e51b815260206004820152602960248201527f4552433732313a2061646472657373207a65726f206973206e6f7420612076616044820152683634b21037bbb732b960b91b60648201526084016107ef565b506001600160a01b031660009081526003602052604090205490565b6010546001600160a01b03163314610ef757600080fd5b601080546001600160a01b0319166001600160a01b0392909216919091179055565b600c546040516323b872dd60e01b8152336004820152306024820152604481018590526101009091046001600160a01b0316906323b872dd906064016020604051808303816000875af1158015610f74573d6000803e3d6000fd5b505050506040513d601f19601f82011682018060405250810190610f989190611e5b565b50601254600d546000916001600160a01b03169063b47234409086610fbf87610e10611f9c565b610fc99042611fb3565b6040516001600160e01b031960e086901b1681526004810193909352602483019190915264ffffffffff166044820152606481018590526084016020604051808303816000875af1158015611022573d6000803e3d6000fd5b505050506040513d601f19601f820116820180604052508101906110469190611fc6565b905061105483610e10611f9c565b61105e9042611fb3565b6000828152600e60209081526040808320805464ffffffffff191664ffffffffff9590951694909417909355600f815290829020869055600d549151868152839133917ffd9b0439bb28997e68e901ea689d5ef7483ddcb02a1be0ccab7b8c2bb261f710910160405180910390a450505050565b6060600180546106d190611d6f565b610d68338383611577565b6110f63383611351565b6111125760405162461bcd60e51b81526004016107ef90611da9565b61111e84848484611645565b50505050565b6000818152600260205260409020546060906001600160a01b03166111a35760405162461bcd60e51b815260206004820152602f60248201527f4552433732314d657461646174613a2055524920717565727920666f72206e6f60448201526e3732bc34b9ba32b73a103a37b5b2b760891b60648201526084016107ef565b610692611678565b6010546001600160a01b031633146111c257600080fd5b6011546040516000916001600160a01b03169047908381818185875af1925050503d806000811461120f576040519150601f19603f3d011682016040523d82523d6000602084013e611214565b606091505b505090508061122257600080fd5b50565b6001600160a01b03163b151590565b60006001600160e01b031982166380ac58cd60e01b148061126557506001600160e01b03198216635b5e139f60e01b145b8061069257506301ffc9a760e01b6001600160e01b0319831614610692565b6000818152600260205260409020546001600160a01b03166112225760405162461bcd60e51b8152602060048201526018602482015277115490cdcc8c4e881a5b9d985b1a59081d1bdad95b88125160421b60448201526064016107ef565b600081815260046020526040902080546001600160a01b0319166001600160a01b038416908117909155819061131882610d6c565b6001600160a01b03167f8c5be1e5ebec7d5bd14f71427d1e84f3dd0314c0f7b2291e5b200ac8c7c3b92560405160405180910390a45050565b60008061135d83610d6c565b9050806001600160a01b0316846001600160a01b031614806113a457506001600160a01b0380821660009081526005602090815260408083209388168352929052205460ff165b806113c85750836001600160a01b03166113bd84610754565b6001600160a01b0316145b949350505050565b826001600160a01b03166113e382610d6c565b6001600160a01b0316146114475760405162461bcd60e51b815260206004820152602560248201527f4552433732313a207472616e736665722066726f6d20696e636f72726563742060448201526437bbb732b960d91b60648201526084016107ef565b6001600160a01b0382166114a95760405162461bcd60e51b8152602060048201526024808201527f4552433732313a207472616e7366657220746f20746865207a65726f206164646044820152637265737360e01b60648201526084016107ef565b6114b4838383611687565b6114bf6000826112e3565b6001600160a01b03831660009081526003602052604081208054600192906114e8908490611e48565b90915550506001600160a01b0382166000908152600360205260408120805460019290611516908490611fb3565b909155505060008181526002602052604080822080546001600160a01b0319166001600160a01b0386811691821790925591518493918716917fddf252ad1be2c89b69c2b068fc378daa952ba7f163c4a11628f55a4df523b3ef91a4505050565b816001600160a01b0316836001600160a01b0316036115d85760405162461bcd60e51b815260206004820152601960248201527f4552433732313a20617070726f766520746f2063616c6c65720000000000000060448201526064016107ef565b6001600160a01b03838116600081815260056020908152604080832094871680845294825291829020805460ff191686151590811790915591519182527f17307eab39ab6107e8899845ad3d59bd9653f200f220920489ca2b5937696c31910160405180910390a3505050565b6116508484846113d0565b61165c8484848461173f565b61111e5760405162461bcd60e51b81526004016107ef90611fdf565b6060600a80546106d190611d6f565b6001600160a01b0383166116e2576116dd81600880546000838152600960205260408120829055600182018355919091527ff3f7a9fe364faab93b216da50a3214154f22a0a2b415b23a84c8169e8b636ee30155565b611705565b816001600160a01b0316836001600160a01b031614611705576117058382611840565b6001600160a01b03821661171c57610890816118dd565b826001600160a01b0316826001600160a01b03161461089057610890828261198c565b60006001600160a01b0384163b1561183557604051630a85bd0160e11b81526001600160a01b0385169063150b7a0290611783903390899088908890600401612031565b6020604051808303816000875af19250505080156117be575060408051601f3d908101601f191682019092526117bb9181019061206e565b60015b61181b573d8080156117ec576040519150601f19603f3d011682016040523d82523d6000602084013e6117f1565b606091505b5080516000036118135760405162461bcd60e51b81526004016107ef90611fdf565b805181602001fd5b6001600160e01b031916630a85bd0160e11b1490506113c8565b506001949350505050565b6000600161184d84610e5a565b6118579190611e48565b6000838152600760205260409020549091508082146118aa576001600160a01b03841660009081526006602090815260408083208584528252808320548484528184208190558352600790915290208190555b5060009182526007602090815260408084208490556001600160a01b039094168352600681528383209183525290812055565b6008546000906118ef90600190611e48565b6000838152600960205260408120546008805493945090928490811061191757611917611e78565b90600052602060002001549050806008838154811061193857611938611e78565b60009182526020808320909101929092558281526009909152604080822084905585825281205560088054806119705761197061208b565b6001900381819060005260206000200160009055905550505050565b600061199783610e5a565b6001600160a01b039093166000908152600660209081526040808320868452825280832085905593825260079052919091209190915550565b6001600160e01b03198116811461122257600080fd5b6000602082840312156119f857600080fd5b8135611a03816119d0565b9392505050565b801515811461122257600080fd5b600060208284031215611a2a57600080fd5b8135611a0381611a0a565b6000815180845260005b81811015611a5b57602081850181015186830182015201611a3f565b506000602082860101526020601f19601f83011685010191505092915050565b602081526000611a036020830184611a35565b600060208284031215611aa057600080fd5b5035919050565b80356001600160a01b0381168114611abe57600080fd5b919050565b60008060408385031215611ad657600080fd5b611adf83611aa7565b946020939093013593505050565b600080600060608486031215611b0257600080fd5b611b0b84611aa7565b9250611b1960208501611aa7565b9150604084013590509250925092565b600060208284031215611b3b57600080fd5b611a0382611aa7565b6020808252825182820181905260009190848201906040850190845b81811015611b7c57835183529284019291840191600101611b60565b50909695505050505050565b634e487b7160e01b600052604160045260246000fd5b600067ffffffffffffffff80841115611bb957611bb9611b88565b604051601f8501601f19908116603f01168101908282118183101715611be157611be1611b88565b81604052809350858152868686011115611bfa57600080fd5b858560208301376000602087830101525050509392505050565b600060208284031215611c2657600080fd5b813567ffffffffffffffff811115611c3d57600080fd5b8201601f81018413611c4e57600080fd5b6113c884823560208401611b9e565b600080600060608486031215611c7257600080fd5b505081359360208301359350604090920135919050565b60008060408385031215611c9c57600080fd5b611ca583611aa7565b91506020830135611cb581611a0a565b809150509250929050565b60008060008060808587031215611cd657600080fd5b611cdf85611aa7565b9350611ced60208601611aa7565b925060408501359150606085013567ffffffffffffffff811115611d1057600080fd5b8501601f81018713611d2157600080fd5b611d3087823560208401611b9e565b91505092959194509250565b60008060408385031215611d4f57600080fd5b611d5883611aa7565b9150611d6660208401611aa7565b90509250929050565b600181811c90821680611d8357607f821691505b602082108103611da357634e487b7160e01b600052602260045260246000fd5b50919050565b6020808252602e908201527f4552433732313a2063616c6c6572206973206e6f7420746f6b656e206f776e6560408201526d1c881b9bdc88185c1c1c9bdd995960921b606082015260800190565b634e487b7160e01b600052601160045260246000fd5b600060018201611e1f57611e1f611df7565b5060010190565b600082611e4357634e487b7160e01b600052601260045260246000fd5b500490565b8181038181111561069257610692611df7565b600060208284031215611e6d57600080fd5b8151611a0381611a0a565b634e487b7160e01b600052603260045260246000fd5b601f82111561089057600081815260208120601f850160051c81016020861015611eb55750805b601f850160051c820191505b81811015611ed457828155600101611ec1565b505050505050565b815167ffffffffffffffff811115611ef657611ef6611b88565b611f0a81611f048454611d6f565b84611e8e565b602080601f831160018114611f3f5760008415611f275750858301515b600019600386901b1c1916600185901b178555611ed4565b600085815260208120601f198616915b82811015611f6e57888601518255948401946001909101908401611f4f565b5085821015611f8c5787850151600019600388901b60f8161c191681555b5050505050600190811b01905550565b808202811582820484141761069257610692611df7565b8082018082111561069257610692611df7565b600060208284031215611fd857600080fd5b5051919050565b60208082526032908201527f4552433732313a207472616e7366657220746f206e6f6e20455243373231526560408201527131b2b4bb32b91034b6b83632b6b2b73a32b960711b606082015260800190565b6001600160a01b038581168252841660208201526040810183905260806060820181905260009061206490830184611a35565b9695505050505050565b60006020828403121561208057600080fd5b8151611a03816119d0565b634e487b7160e01b600052603160045260246000fdfea2646970667358221220bce876d4f78438c62372f24d4260ec63144d937cae2502c2bf49bd3629d4ab9064736f6c634300081100334552433732313a207472616e7366657220746f206e6f6e20455243373231526568747470733a2f2f61647370616365732e78797a2f616473706163652e6a736f6ea2646970667358221220e10c736d2bc02e3718e6231eed9dd98aade8d6c4ebf15bdac81a7fd08a00a9b364736f6c63430008110033",
  "devdoc": {
    "details": "when deploying make sure to get the right Tableland contract for desired chainupon deployment this contract creates three Tableland Tables:AdSpaces_{chain}_{tableID}, Campaigns_{chain}_{tableID}, Deals_{chain}_{tableID}Custom errors need to be added...",
    "kind": "dev",
    "methods": {
      "constructor": {
        "params": {
          "tablelandAddress": "see docs.tableland.xyz for contracts on chains"
        }
      },
      "createAdSpace(string,string,string,uint8,string)": {
        "details": "id and owner will be set automatically",
        "params": {
          "_asking_price": "price of new creating Adspace",
          "_name": "name of new creating Adspace",
          "_numNFTs": "amount of NFTs to mint to msg.sender of creation",
          "_size": "size of the AdSpaces: wide | small | scyscraper",
          "_website": "website where the AdSpace will be located"
        }
      },
      "createCampaign(string,string,string,string)": {
        "details": "owner will be auto assigned to msg.sender",
        "params": {
          "cid": "id of the affected AdSpace",
          "link": "ending timestamp (UNIX)",
          "size": "negotiated price for the deal"
        }
      },
      "createDeal(uint256,uint256,uint40,uint256)": {
        "params": {
          "_adspaceId": "id of the affected AdSpace",
          "_campaignId": "id of the affected campaign",
          "_end_at": "ending timestamp (UNIX)",
          "_price": "negotiated price for the deal"
        }
      },
      "getAdSpaceAddress(uint256)": {
        "params": {
          "i": "the identifier (number) of the Adspace interested in"
        },
        "returns": {
          "_0": "address the addess of the AdSpace Contract with identifier i"
        }
      },
      "getAdSpaceTable()": {
        "returns": {
          "_0": "uint256 the full name of the current AdSpace Table of this AdSpaceFactory"
        }
      },
      "getAdSpaceTableId()": {
        "returns": {
          "_0": "uint256 the id of the current AdSpace Table of this AdSpaceFactory"
        }
      },
      "getCampaignTable()": {
        "returns": {
          "_0": "uint256 the full name of the current Campaign Table of this AdSpaceFactory"
        }
      },
      "getCampaignTableId()": {
        "returns": {
          "_0": "uint256 the id of the current Campaign Table of this AdSpaceFactory"
        }
      },
      "getCounterAdSpaces()": {
        "returns": {
          "_0": "uint256 the current amount of Adspaces created by this Factory"
        }
      },
      "getDealTable()": {
        "returns": {
          "_0": "uint256 he full name of the current Deal Table of this AdSpaceFactory"
        }
      },
      "getDealTableId()": {
        "returns": {
          "_0": "uint256 the id of the current Deal Table of this AdSpaceFactory"
        }
      },
      "onERC721Received(address,address,uint256,bytes)": {
        "details": "See {IERC721Receiver-onERC721Received}. Always returns `IERC721Receiver.onERC721Received.selector`."
      },
      "owner()": {
        "details": "Returns the address of the current owner."
      },
      "renounceOwnership()": {
        "details": "Leaves the contract without owner. It will not be possible to call `onlyOwner` functions anymore. Can only be called by the current owner. NOTE: Renouncing ownership will leave the contract without an owner, thereby removing any functionality that is only available to the owner."
      },
      "transferOwnership(address)": {
        "details": "Transfers ownership of the contract to a new account (`newOwner`). Can only be called by the current owner."
      }
    },
    "version": 1
  },
  "userdoc": {
    "kind": "user",
    "methods": {
      "createAdSpace(string,string,string,uint8,string)": {
        "notice": "create new AdSpace contract"
      },
      "createCampaign(string,string,string,string)": {
        "notice": "Creating a Campaign and inserting row on Tableland"
      },
      "createDeal(uint256,uint256,uint40,uint256)": {
        "notice": "Creating Deal and inserting row on Tablelandafter creating the deal, the Adspace Table will update on the affected row"
      }
    },
    "notice": "This contract is the controller of all Tableland interactionsand deployer of all the AdSpace contracts",
    "version": 1
  },
  "storageLayout": {
    "storage": [
      {
        "astId": 7,
        "contract": "contracts/AdSpaceFactory.sol:AdSpaceFactory",
        "label": "_owner",
        "offset": 0,
        "slot": "0",
        "type": "t_address"
      },
      {
        "astId": 2635,
        "contract": "contracts/AdSpaceFactory.sol:AdSpaceFactory",
        "label": "_tableland",
        "offset": 0,
        "slot": "1",
        "type": "t_contract(ITablelandTables)3332"
      },
      {
        "astId": 2637,
        "contract": "contracts/AdSpaceFactory.sol:AdSpaceFactory",
        "label": "_adspacetableid",
        "offset": 0,
        "slot": "2",
        "type": "t_uint256"
      },
      {
        "astId": 2639,
        "contract": "contracts/AdSpaceFactory.sol:AdSpaceFactory",
        "label": "_adSpaceTable",
        "offset": 0,
        "slot": "3",
        "type": "t_string_storage"
      },
      {
        "astId": 2641,
        "contract": "contracts/AdSpaceFactory.sol:AdSpaceFactory",
        "label": "_campaigntableid",
        "offset": 0,
        "slot": "4",
        "type": "t_uint256"
      },
      {
        "astId": 2643,
        "contract": "contracts/AdSpaceFactory.sol:AdSpaceFactory",
        "label": "_campaignTable",
        "offset": 0,
        "slot": "5",
        "type": "t_string_storage"
      },
      {
        "astId": 2645,
        "contract": "contracts/AdSpaceFactory.sol:AdSpaceFactory",
        "label": "_dealtableid",
        "offset": 0,
        "slot": "6",
        "type": "t_uint256"
      },
      {
        "astId": 2647,
        "contract": "contracts/AdSpaceFactory.sol:AdSpaceFactory",
        "label": "_dealTable",
        "offset": 0,
        "slot": "7",
        "type": "t_string_storage"
      },
      {
        "astId": 2650,
        "contract": "contracts/AdSpaceFactory.sol:AdSpaceFactory",
        "label": "_counter_adspaces",
        "offset": 0,
        "slot": "8",
        "type": "t_uint256"
      },
      {
        "astId": 2653,
        "contract": "contracts/AdSpaceFactory.sol:AdSpaceFactory",
        "label": "_counter_campaigns",
        "offset": 0,
        "slot": "9",
        "type": "t_uint256"
      },
      {
        "astId": 2656,
        "contract": "contracts/AdSpaceFactory.sol:AdSpaceFactory",
        "label": "_counter_deals",
        "offset": 0,
        "slot": "10",
        "type": "t_uint256"
      },
      {
        "astId": 2659,
        "contract": "contracts/AdSpaceFactory.sol:AdSpaceFactory",
        "label": "Adspaces",
        "offset": 0,
        "slot": "11",
        "type": "t_array(t_address)dyn_storage"
      }
    ],
    "types": {
      "t_address": {
        "encoding": "inplace",
        "label": "address",
        "numberOfBytes": "20"
      },
      "t_array(t_address)dyn_storage": {
        "base": "t_address",
        "encoding": "dynamic_array",
        "label": "address[]",
        "numberOfBytes": "32"
      },
      "t_contract(ITablelandTables)3332": {
        "encoding": "inplace",
        "label": "contract ITablelandTables",
        "numberOfBytes": "20"
      },
      "t_string_storage": {
        "encoding": "bytes",
        "label": "string",
        "numberOfBytes": "32"
      },
      "t_uint256": {
        "encoding": "inplace",
        "label": "uint256",
        "numberOfBytes": "32"
      }
    }
  }
}